{"contracts/PersonBounty.sol":{"PersonBounty":{"abi":[{"anonymous":false,"inputs":[{"indexed":true,"internalType":"uint256","name":"bountyId","type":"uint256"},{"indexed":false,"internalType":"string","name":"personId","type":"string"},{"indexed":false,"internalType":"uint256","name":"reward","type":"uint256"}],"name":"BountyCreated","type":"event"},{"anonymous":false,"inputs":[{"indexed":true,"internalType":"uint256","name":"bountyId","type":"uint256"},{"indexed":false,"internalType":"address","name":"redeemer","type":"address"},{"indexed":false,"internalType":"uint256","name":"reward","type":"uint256"}],"name":"BountyRedeemed","type":"event"},{"inputs":[{"internalType":"uint256","name":"","type":"uint256"}],"name":"bounties","outputs":[{"internalType":"string","name":"personId","type":"string"},{"internalType":"uint256","name":"reward","type":"uint256"},{"internalType":"bool","name":"isActive","type":"bool"},{"internalType":"address","name":"creator","type":"address"},{"internalType":"uint256","name":"createdAt","type":"uint256"},{"internalType":"uint256","name":"bountyId","type":"uint256"}],"stateMutability":"view","type":"function"},{"inputs":[{"internalType":"string","name":"personId","type":"string"},{"internalType":"uint256","name":"reward","type":"uint256"}],"name":"createBounty","outputs":[],"stateMutability":"payable","type":"function"},{"inputs":[{"internalType":"string","name":"id","type":"string"},{"internalType":"uint256[]","name":"faceEmbedding","type":"uint256[]"},{"internalType":"uint256[][]","name":"landmarks","type":"uint256[][]"},{"internalType":"uint256","name":"detectionScore","type":"uint256"}],"name":"createPerson","outputs":[],"stateMutability":"nonpayable","type":"function"},{"inputs":[],"name":"getActiveBountiesCount","outputs":[{"internalType":"uint256","name":"","type":"uint256"}],"stateMutability":"view","type":"function"},{"inputs":[{"internalType":"uint256","name":"bountyId","type":"uint256"}],"name":"getBountyById","outputs":[{"internalType":"string","name":"personId","type":"string"},{"internalType":"uint256","name":"reward","type":"uint256"},{"internalType":"bool","name":"isActive","type":"bool"},{"internalType":"address","name":"creator","type":"address"},{"internalType":"uint256","name":"createdAt","type":"uint256"}],"stateMutability":"view","type":"function"},{"inputs":[{"internalType":"string","name":"personId","type":"string"}],"name":"getPersonBounties","outputs":[{"internalType":"uint256[]","name":"","type":"uint256[]"}],"stateMutability":"view","type":"function"},{"inputs":[{"internalType":"string","name":"","type":"string"}],"name":"people","outputs":[{"internalType":"string","name":"id","type":"string"},{"internalType":"uint256","name":"detectionScore","type":"uint256"},{"internalType":"uint256","name":"timestamp","type":"uint256"}],"stateMutability":"view","type":"function"},{"inputs":[{"internalType":"string","name":"","type":"string"},{"internalType":"uint256","name":"","type":"uint256"}],"name":"personBounties","outputs":[{"internalType":"uint256","name":"","type":"uint256"}],"stateMutability":"view","type":"function"},{"inputs":[{"internalType":"uint256","name":"bountyId","type":"uint256"}],"name":"redeemBounty","outputs":[],"stateMutability":"nonpayable","type":"function"}],"evm":{"bytecode":{"linkReferences":{},"object":"6080604052600160035534801561001557600080fd5b50611b8a806100256000396000f3fe6080604052600436106100865760003560e01c8063b2aced4f11610059578063b2aced4f1461015b578063b83a3bc11461019c578063bc12fb87146101b8578063ce9d3b4c146101f5578063dc2f87441461021e57610086565b80630735ce3c1461008b5780630e139a94146100b45780632cb58f00146100f35780634a655c0d14610130575b600080fd5b34801561009757600080fd5b506100b260048036038101906100ad9190610d6a565b610260565b005b3480156100c057600080fd5b506100db60048036038101906100d69190610edd565b6103b9565b6040516100ea93929190610fb4565b60405180910390f35b3480156100ff57600080fd5b5061011a60048036038101906101159190610ff2565b610481565b604051610127919061104e565b60405180910390f35b34801561013c57600080fd5b506101456104c8565b604051610152919061104e565b60405180910390f35b34801561016757600080fd5b50610182600480360381019061017d9190610d6a565b610533565b6040516101939594939291906110c5565b60405180910390f35b6101b660048036038101906101b19190610ff2565b6106f2565b005b3480156101c457600080fd5b506101df60048036038101906101da9190610edd565b61093f565b6040516101ec91906111dd565b60405180910390f35b34801561020157600080fd5b5061021c600480360381019061021791906113a8565b6109b5565b005b34801561022a57600080fd5b5061024560048036038101906102409190610d6a565b610b20565b60405161025796959493929190611463565b60405180910390f35b600060016000838152602001908152602001600020905060008160030154116102be576040517f08c379a00000000000000000000000000000000000000000000000000000000081526004016102b590611517565b60405180910390fd5b8060020160009054906101000a900460ff1661030f576040517f08c379a000000000000000000000000000000000000000000000000000000000815260040161030690611583565b60405180910390fd5b60008160020160006101000a81548160ff0219169083151502179055503373ffffffffffffffffffffffffffffffffffffffff166108fc82600101549081150290604051600060405180830381858888f19350505050158015610376573d6000803e3d6000fd5b50817f3f63fc59c24c4841ebb65dbca4b46cfc15066c93701f16e838e2734d333ffe5f3383600101546040516103ad9291906115a3565b60405180910390a25050565b6000818051602081018201805184825260208301602085012081835280955050505050506000915090508060000180546103f2906115fb565b80601f016020809104026020016040519081016040528092919081815260200182805461041e906115fb565b801561046b5780601f106104405761010080835404028352916020019161046b565b820191906000526020600020905b81548152906001019060200180831161044e57829003601f168201915b5050505050908060030154908060040154905083565b60028280516020810182018051848252602083016020850120818352809550505050505081815481106104b357600080fd5b90600052602060002001600091509150505481565b600080600090506000600190505b60035481101561052b576001600082815260200190815260200160002060020160009054906101000a900460ff16156105185781806105149061165b565b9250505b80806105239061165b565b9150506104d6565b508091505090565b60606000806000806000600160008881526020019081526020016000206040518060c001604052908160008201805461056b906115fb565b80601f0160208091040260200160405190810160405280929190818152602001828054610597906115fb565b80156105e45780601f106105b9576101008083540402835291602001916105e4565b820191906000526020600020905b8154815290600101906020018083116105c757829003601f168201915b50505050508152602001600182015481526020016002820160009054906101000a900460ff161515151581526020016002820160019054906101000a900473ffffffffffffffffffffffffffffffffffffffff1673ffffffffffffffffffffffffffffffffffffffff1673ffffffffffffffffffffffffffffffffffffffff16815260200160038201548152602001600482015481525050905060008160800151116106c5576040517f08c379a00000000000000000000000000000000000000000000000000000000081526004016106bc90611517565b60405180910390fd5b80600001518160200151826040015183606001518460800151955095509550955095505091939590929450565b6000808360405161070391906116df565b9081526020016040518091039020600001805461071f906115fb565b905011610761576040517f08c379a000000000000000000000000000000000000000000000000000000000815260040161075890611742565b60405180910390fd5b8034146107a3576040517f08c379a000000000000000000000000000000000000000000000000000000000815260040161079a906117ae565b60405180910390fd5b6000600360008154809291906107b89061165b565b91905055905060006040518060c001604052808581526020018481526020016001151581526020013373ffffffffffffffffffffffffffffffffffffffff16815260200142815260200183815250905080600160008481526020019081526020016000206000820151816000019081610831919061197a565b506020820151816001015560408201518160020160006101000a81548160ff02191690831515021790555060608201518160020160016101000a81548173ffffffffffffffffffffffffffffffffffffffff021916908373ffffffffffffffffffffffffffffffffffffffff1602179055506080820151816003015560a082015181600401559050506002846040516108ca91906116df565b9081526020016040518091039020829080600181540180825580915050600190039060005260206000200160009091909190915055817f4b4f8d3c427c31f6a1e8a518678f20d88e304da4d4fa251c3f4ac58edd0de7fa8585604051610931929190611a4c565b60405180910390a250505050565b606060028260405161095191906116df565b90815260200160405180910390208054806020026020016040519081016040528092919081815260200182805480156109a957602002820191906000526020600020905b815481526020019060010190808311610995575b50505050509050919050565b60008451116109f9576040517f08c379a00000000000000000000000000000000000000000000000000000000081526004016109f090611ac8565b60405180910390fd5b60008085604051610a0a91906116df565b90815260200160405180910390206000018054610a26906115fb565b905014610a68576040517f08c379a0000000000000000000000000000000000000000000000000000000008152600401610a5f90611b34565b60405180910390fd5b60006040518060a0016040528086815260200185815260200184815260200183815260200142815250905080600086604051610aa491906116df565b90815260200160405180910390206000820151816000019081610ac7919061197a565b506020820151816001019080519060200190610ae4929190610c11565b506040820151816002019080519060200190610b01929190610c5e565b5060608201518160030155608082015181600401559050505050505050565b6001602052806000526040600020600091509050806000018054610b43906115fb565b80601f0160208091040260200160405190810160405280929190818152602001828054610b6f906115fb565b8015610bbc5780601f10610b9157610100808354040283529160200191610bbc565b820191906000526020600020905b815481529060010190602001808311610b9f57829003601f168201915b5050505050908060010154908060020160009054906101000a900460ff16908060020160019054906101000a900473ffffffffffffffffffffffffffffffffffffffff16908060030154908060040154905086565b828054828255906000526020600020908101928215610c4d579160200282015b82811115610c4c578251825591602001919060010190610c31565b5b509050610c5a9190610cbe565b5090565b828054828255906000526020600020908101928215610cad579160200282015b82811115610cac578251829080519060200190610c9c929190610c11565b5091602001919060010190610c7e565b5b509050610cba9190610cdb565b5090565b5b80821115610cd7576000816000905550600101610cbf565b5090565b5b80821115610cfb5760008181610cf29190610cff565b50600101610cdc565b5090565b5080546000825590600052602060002090810190610d1d9190610cbe565b50565b6000604051905090565b600080fd5b600080fd5b6000819050919050565b610d4781610d34565b8114610d5257600080fd5b50565b600081359050610d6481610d3e565b92915050565b600060208284031215610d8057610d7f610d2a565b5b6000610d8e84828501610d55565b91505092915050565b600080fd5b600080fd5b6000601f19601f8301169050919050565b7f4e487b7100000000000000000000000000000000000000000000000000000000600052604160045260246000fd5b610dea82610da1565b810181811067ffffffffffffffff82111715610e0957610e08610db2565b5b80604052505050565b6000610e1c610d20565b9050610e288282610de1565b919050565b600067ffffffffffffffff821115610e4857610e47610db2565b5b610e5182610da1565b9050602081019050919050565b82818337600083830152505050565b6000610e80610e7b84610e2d565b610e12565b905082815260208101848484011115610e9c57610e9b610d9c565b5b610ea7848285610e5e565b509392505050565b600082601f830112610ec457610ec3610d97565b5b8135610ed4848260208601610e6d565b91505092915050565b600060208284031215610ef357610ef2610d2a565b5b600082013567ffffffffffffffff811115610f1157610f10610d2f565b5b610f1d84828501610eaf565b91505092915050565b600081519050919050565b600082825260208201905092915050565b60005b83811015610f60578082015181840152602081019050610f45565b60008484015250505050565b6000610f7782610f26565b610f818185610f31565b9350610f91818560208601610f42565b610f9a81610da1565b840191505092915050565b610fae81610d34565b82525050565b60006060820190508181036000830152610fce8186610f6c565b9050610fdd6020830185610fa5565b610fea6040830184610fa5565b949350505050565b6000806040838503121561100957611008610d2a565b5b600083013567ffffffffffffffff81111561102757611026610d2f565b5b61103385828601610eaf565b925050602061104485828601610d55565b9150509250929050565b60006020820190506110636000830184610fa5565b92915050565b60008115159050919050565b61107e81611069565b82525050565b600073ffffffffffffffffffffffffffffffffffffffff82169050919050565b60006110af82611084565b9050919050565b6110bf816110a4565b82525050565b600060a08201905081810360008301526110df8188610f6c565b90506110ee6020830187610fa5565b6110fb6040830186611075565b61110860608301856110b6565b6111156080830184610fa5565b9695505050505050565b600081519050919050565b600082825260208201905092915050565b6000819050602082019050919050565b61115481610d34565b82525050565b6000611166838361114b565b60208301905092915050565b6000602082019050919050565b600061118a8261111f565b611194818561112a565b935061119f8361113b565b8060005b838110156111d05781516111b7888261115a565b97506111c283611172565b9250506001810190506111a3565b5085935050505092915050565b600060208201905081810360008301526111f7818461117f565b905092915050565b600067ffffffffffffffff82111561121a57611219610db2565b5b602082029050602081019050919050565b600080fd5b600061124361123e846111ff565b610e12565b905080838252602082019050602084028301858111156112665761126561122b565b5b835b8181101561128f578061127b8882610d55565b845260208401935050602081019050611268565b5050509392505050565b600082601f8301126112ae576112ad610d97565b5b81356112be848260208601611230565b91505092915050565b600067ffffffffffffffff8211156112e2576112e1610db2565b5b602082029050602081019050919050565b6000611306611301846112c7565b610e12565b905080838252602082019050602084028301858111156113295761132861122b565b5b835b8181101561137057803567ffffffffffffffff81111561134e5761134d610d97565b5b80860161135b8982611299565b8552602085019450505060208101905061132b565b5050509392505050565b600082601f83011261138f5761138e610d97565b5b813561139f8482602086016112f3565b91505092915050565b600080600080608085870312156113c2576113c1610d2a565b5b600085013567ffffffffffffffff8111156113e0576113df610d2f565b5b6113ec87828801610eaf565b945050602085013567ffffffffffffffff81111561140d5761140c610d2f565b5b61141987828801611299565b935050604085013567ffffffffffffffff81111561143a57611439610d2f565b5b6114468782880161137a565b925050606061145787828801610d55565b91505092959194509250565b600060c082019050818103600083015261147d8189610f6c565b905061148c6020830188610fa5565b6114996040830187611075565b6114a660608301866110b6565b6114b36080830185610fa5565b6114c060a0830184610fa5565b979650505050505050565b7f426f756e747920646f6573206e6f742065786973740000000000000000000000600082015250565b6000611501601583610f31565b915061150c826114cb565b602082019050919050565b60006020820190508181036000830152611530816114f4565b9050919050565b7f426f756e7479206973206e6f7420616374697665000000000000000000000000600082015250565b600061156d601483610f31565b915061157882611537565b602082019050919050565b6000602082019050818103600083015261159c81611560565b9050919050565b60006040820190506115b860008301856110b6565b6115c56020830184610fa5565b9392505050565b7f4e487b7100000000000000000000000000000000000000000000000000000000600052602260045260246000fd5b6000600282049050600182168061161357607f821691505b602082108103611626576116256115cc565b5b50919050565b7f4e487b7100000000000000000000000000000000000000000000000000000000600052601160045260246000fd5b600061166682610d34565b91507fffffffffffffffffffffffffffffffffffffffffffffffffffffffffffffffff82036116985761169761162c565b5b600182019050919050565b600081905092915050565b60006116b982610f26565b6116c381856116a3565b93506116d3818560208601610f42565b80840191505092915050565b60006116eb82846116ae565b915081905092915050565b7f506572736f6e206d757374206578697374000000000000000000000000000000600082015250565b600061172c601183610f31565b9150611737826116f6565b602082019050919050565b6000602082019050818103600083015261175b8161171f565b9050919050565b7f4d7573742073656e642065786163742072657761726420616d6f756e74000000600082015250565b6000611798601d83610f31565b91506117a382611762565b602082019050919050565b600060208201905081810360008301526117c78161178b565b9050919050565b60008190508160005260206000209050919050565b60006020601f8301049050919050565b600082821b905092915050565b6000600883026118307fffffffffffffffffffffffffffffffffffffffffffffffffffffffffffffffff826117f3565b61183a86836117f3565b95508019841693508086168417925050509392505050565b6000819050919050565b600061187761187261186d84610d34565b611852565b610d34565b9050919050565b6000819050919050565b6118918361185c565b6118a561189d8261187e565b848454611800565b825550505050565b600090565b6118ba6118ad565b6118c5818484611888565b505050565b5b818110156118e9576118de6000826118b2565b6001810190506118cb565b5050565b601f82111561192e576118ff816117ce565b611908846117e3565b81016020851015611917578190505b61192b611923856117e3565b8301826118ca565b50505b505050565b600082821c905092915050565b600061195160001984600802611933565b1980831691505092915050565b600061196a8383611940565b9150826002028217905092915050565b61198382610f26565b67ffffffffffffffff81111561199c5761199b610db2565b5b6119a682546115fb565b6119b18282856118ed565b600060209050601f8311600181146119e457600084156119d2578287015190505b6119dc858261195e565b865550611a44565b601f1984166119f2866117ce565b60005b82811015611a1a578489015182556001820191506020850194506020810190506119f5565b86831015611a375784890151611a33601f891682611940565b8355505b6001600288020188555050505b505050505050565b60006040820190508181036000830152611a668185610f6c565b9050611a756020830184610fa5565b9392505050565b7f496e76616c696420494400000000000000000000000000000000000000000000600082015250565b6000611ab2600a83610f31565b9150611abd82611a7c565b602082019050919050565b60006020820190508181036000830152611ae181611aa5565b9050919050565b7f506572736f6e20616c7265616479206578697374730000000000000000000000600082015250565b6000611b1e601583610f31565b9150611b2982611ae8565b602082019050919050565b60006020820190508181036000830152611b4d81611b11565b905091905056fea26469706673582212207dcea65130d7cb20ff2892f5e863478d21f0eda4e1218dccb7720fda9268d0e764736f6c63430008140033","opcodes":"PUSH1 0x80 PUSH1 0x40 MSTORE PUSH1 0x1 PUSH1 0x3 SSTORE CALLVALUE DUP1 ISZERO PUSH2 0x15 JUMPI PUSH1 0x0 DUP1 REVERT JUMPDEST POP PUSH2 0x1B8A DUP1 PUSH2 0x25 PUSH1 0x0 CODECOPY PUSH1 0x0 RETURN INVALID PUSH1 0x80 PUSH1 0x40 MSTORE PUSH1 0x4 CALLDATASIZE LT PUSH2 0x86 JUMPI PUSH1 0x0 CALLDATALOAD PUSH1 0xE0 SHR DUP1 PUSH4 0xB2ACED4F GT PUSH2 0x59 JUMPI DUP1 PUSH4 0xB2ACED4F EQ PUSH2 0x15B JUMPI DUP1 PUSH4 0xB83A3BC1 EQ PUSH2 0x19C JUMPI DUP1 PUSH4 0xBC12FB87 EQ PUSH2 0x1B8 JUMPI DUP1 PUSH4 0xCE9D3B4C EQ PUSH2 0x1F5 JUMPI DUP1 PUSH4 0xDC2F8744 EQ PUSH2 0x21E JUMPI PUSH2 0x86 JUMP JUMPDEST DUP1 PUSH4 0x735CE3C EQ PUSH2 0x8B JUMPI DUP1 PUSH4 0xE139A94 EQ PUSH2 0xB4 JUMPI DUP1 PUSH4 0x2CB58F00 EQ PUSH2 0xF3 JUMPI DUP1 PUSH4 0x4A655C0D EQ PUSH2 0x130 JUMPI JUMPDEST PUSH1 0x0 DUP1 REVERT JUMPDEST CALLVALUE DUP1 ISZERO PUSH2 0x97 JUMPI PUSH1 0x0 DUP1 REVERT JUMPDEST POP PUSH2 0xB2 PUSH1 0x4 DUP1 CALLDATASIZE SUB DUP2 ADD SWAP1 PUSH2 0xAD SWAP2 SWAP1 PUSH2 0xD6A JUMP JUMPDEST PUSH2 0x260 JUMP JUMPDEST STOP JUMPDEST CALLVALUE DUP1 ISZERO PUSH2 0xC0 JUMPI PUSH1 0x0 DUP1 REVERT JUMPDEST POP PUSH2 0xDB PUSH1 0x4 DUP1 CALLDATASIZE SUB DUP2 ADD SWAP1 PUSH2 0xD6 SWAP2 SWAP1 PUSH2 0xEDD JUMP JUMPDEST PUSH2 0x3B9 JUMP JUMPDEST PUSH1 0x40 MLOAD PUSH2 0xEA SWAP4 SWAP3 SWAP2 SWAP1 PUSH2 0xFB4 JUMP JUMPDEST PUSH1 0x40 MLOAD DUP1 SWAP2 SUB SWAP1 RETURN JUMPDEST CALLVALUE DUP1 ISZERO PUSH2 0xFF JUMPI PUSH1 0x0 DUP1 REVERT JUMPDEST POP PUSH2 0x11A PUSH1 0x4 DUP1 CALLDATASIZE SUB DUP2 ADD SWAP1 PUSH2 0x115 SWAP2 SWAP1 PUSH2 0xFF2 JUMP JUMPDEST PUSH2 0x481 JUMP JUMPDEST PUSH1 0x40 MLOAD PUSH2 0x127 SWAP2 SWAP1 PUSH2 0x104E JUMP JUMPDEST PUSH1 0x40 MLOAD DUP1 SWAP2 SUB SWAP1 RETURN JUMPDEST CALLVALUE DUP1 ISZERO PUSH2 0x13C JUMPI PUSH1 0x0 DUP1 REVERT JUMPDEST POP PUSH2 0x145 PUSH2 0x4C8 JUMP JUMPDEST PUSH1 0x40 MLOAD PUSH2 0x152 SWAP2 SWAP1 PUSH2 0x104E JUMP JUMPDEST PUSH1 0x40 MLOAD DUP1 SWAP2 SUB SWAP1 RETURN JUMPDEST CALLVALUE DUP1 ISZERO PUSH2 0x167 JUMPI PUSH1 0x0 DUP1 REVERT JUMPDEST POP PUSH2 0x182 PUSH1 0x4 DUP1 CALLDATASIZE SUB DUP2 ADD SWAP1 PUSH2 0x17D SWAP2 SWAP1 PUSH2 0xD6A JUMP JUMPDEST PUSH2 0x533 JUMP JUMPDEST PUSH1 0x40 MLOAD PUSH2 0x193 SWAP6 SWAP5 SWAP4 SWAP3 SWAP2 SWAP1 PUSH2 0x10C5 JUMP JUMPDEST PUSH1 0x40 MLOAD DUP1 SWAP2 SUB SWAP1 RETURN JUMPDEST PUSH2 0x1B6 PUSH1 0x4 DUP1 CALLDATASIZE SUB DUP2 ADD SWAP1 PUSH2 0x1B1 SWAP2 SWAP1 PUSH2 0xFF2 JUMP JUMPDEST PUSH2 0x6F2 JUMP JUMPDEST STOP JUMPDEST CALLVALUE DUP1 ISZERO PUSH2 0x1C4 JUMPI PUSH1 0x0 DUP1 REVERT JUMPDEST POP PUSH2 0x1DF PUSH1 0x4 DUP1 CALLDATASIZE SUB DUP2 ADD SWAP1 PUSH2 0x1DA SWAP2 SWAP1 PUSH2 0xEDD JUMP JUMPDEST PUSH2 0x93F JUMP JUMPDEST PUSH1 0x40 MLOAD PUSH2 0x1EC SWAP2 SWAP1 PUSH2 0x11DD JUMP JUMPDEST PUSH1 0x40 MLOAD DUP1 SWAP2 SUB SWAP1 RETURN JUMPDEST CALLVALUE DUP1 ISZERO PUSH2 0x201 JUMPI PUSH1 0x0 DUP1 REVERT JUMPDEST POP PUSH2 0x21C PUSH1 0x4 DUP1 CALLDATASIZE SUB DUP2 ADD SWAP1 PUSH2 0x217 SWAP2 SWAP1 PUSH2 0x13A8 JUMP JUMPDEST PUSH2 0x9B5 JUMP JUMPDEST STOP JUMPDEST CALLVALUE DUP1 ISZERO PUSH2 0x22A JUMPI PUSH1 0x0 DUP1 REVERT JUMPDEST POP PUSH2 0x245 PUSH1 0x4 DUP1 CALLDATASIZE SUB DUP2 ADD SWAP1 PUSH2 0x240 SWAP2 SWAP1 PUSH2 0xD6A JUMP JUMPDEST PUSH2 0xB20 JUMP JUMPDEST PUSH1 0x40 MLOAD PUSH2 0x257 SWAP7 SWAP6 SWAP5 SWAP4 SWAP3 SWAP2 SWAP1 PUSH2 0x1463 JUMP JUMPDEST PUSH1 0x40 MLOAD DUP1 SWAP2 SUB SWAP1 RETURN JUMPDEST PUSH1 0x0 PUSH1 0x1 PUSH1 0x0 DUP4 DUP2 MSTORE PUSH1 0x20 ADD SWAP1 DUP2 MSTORE PUSH1 0x20 ADD PUSH1 0x0 KECCAK256 SWAP1 POP PUSH1 0x0 DUP2 PUSH1 0x3 ADD SLOAD GT PUSH2 0x2BE JUMPI PUSH1 0x40 MLOAD PUSH32 0x8C379A000000000000000000000000000000000000000000000000000000000 DUP2 MSTORE PUSH1 0x4 ADD PUSH2 0x2B5 SWAP1 PUSH2 0x1517 JUMP JUMPDEST PUSH1 0x40 MLOAD DUP1 SWAP2 SUB SWAP1 REVERT JUMPDEST DUP1 PUSH1 0x2 ADD PUSH1 0x0 SWAP1 SLOAD SWAP1 PUSH2 0x100 EXP SWAP1 DIV PUSH1 0xFF AND PUSH2 0x30F JUMPI PUSH1 0x40 MLOAD PUSH32 0x8C379A000000000000000000000000000000000000000000000000000000000 DUP2 MSTORE PUSH1 0x4 ADD PUSH2 0x306 SWAP1 PUSH2 0x1583 JUMP JUMPDEST PUSH1 0x40 MLOAD DUP1 SWAP2 SUB SWAP1 REVERT JUMPDEST PUSH1 0x0 DUP2 PUSH1 0x2 ADD PUSH1 0x0 PUSH2 0x100 EXP DUP2 SLOAD DUP2 PUSH1 0xFF MUL NOT AND SWAP1 DUP4 ISZERO ISZERO MUL OR SWAP1 SSTORE POP CALLER PUSH20 0xFFFFFFFFFFFFFFFFFFFFFFFFFFFFFFFFFFFFFFFF AND PUSH2 0x8FC DUP3 PUSH1 0x1 ADD SLOAD SWAP1 DUP2 ISZERO MUL SWAP1 PUSH1 0x40 MLOAD PUSH1 0x0 PUSH1 0x40 MLOAD DUP1 DUP4 SUB DUP2 DUP6 DUP9 DUP9 CALL SWAP4 POP POP POP POP ISZERO DUP1 ISZERO PUSH2 0x376 JUMPI RETURNDATASIZE PUSH1 0x0 DUP1 RETURNDATACOPY RETURNDATASIZE PUSH1 0x0 REVERT JUMPDEST POP DUP2 PUSH32 0x3F63FC59C24C4841EBB65DBCA4B46CFC15066C93701F16E838E2734D333FFE5F CALLER DUP4 PUSH1 0x1 ADD SLOAD PUSH1 0x40 MLOAD PUSH2 0x3AD SWAP3 SWAP2 SWAP1 PUSH2 0x15A3 JUMP JUMPDEST PUSH1 0x40 MLOAD DUP1 SWAP2 SUB SWAP1 LOG2 POP POP JUMP JUMPDEST PUSH1 0x0 DUP2 DUP1 MLOAD PUSH1 0x20 DUP2 ADD DUP3 ADD DUP1 MLOAD DUP5 DUP3 MSTORE PUSH1 0x20 DUP4 ADD PUSH1 0x20 DUP6 ADD KECCAK256 DUP2 DUP4 MSTORE DUP1 SWAP6 POP POP POP POP POP POP PUSH1 0x0 SWAP2 POP SWAP1 POP DUP1 PUSH1 0x0 ADD DUP1 SLOAD PUSH2 0x3F2 SWAP1 PUSH2 0x15FB JUMP JUMPDEST DUP1 PUSH1 0x1F ADD PUSH1 0x20 DUP1 SWAP2 DIV MUL PUSH1 0x20 ADD PUSH1 0x40 MLOAD SWAP1 DUP2 ADD PUSH1 0x40 MSTORE DUP1 SWAP3 SWAP2 SWAP1 DUP2 DUP2 MSTORE PUSH1 0x20 ADD DUP3 DUP1 SLOAD PUSH2 0x41E SWAP1 PUSH2 0x15FB JUMP JUMPDEST DUP1 ISZERO PUSH2 0x46B JUMPI DUP1 PUSH1 0x1F LT PUSH2 0x440 JUMPI PUSH2 0x100 DUP1 DUP4 SLOAD DIV MUL DUP4 MSTORE SWAP2 PUSH1 0x20 ADD SWAP2 PUSH2 0x46B JUMP JUMPDEST DUP3 ADD SWAP2 SWAP1 PUSH1 0x0 MSTORE PUSH1 0x20 PUSH1 0x0 KECCAK256 SWAP1 JUMPDEST DUP2 SLOAD DUP2 MSTORE SWAP1 PUSH1 0x1 ADD SWAP1 PUSH1 0x20 ADD DUP1 DUP4 GT PUSH2 0x44E JUMPI DUP3 SWAP1 SUB PUSH1 0x1F AND DUP3 ADD SWAP2 JUMPDEST POP POP POP POP POP SWAP1 DUP1 PUSH1 0x3 ADD SLOAD SWAP1 DUP1 PUSH1 0x4 ADD SLOAD SWAP1 POP DUP4 JUMP JUMPDEST PUSH1 0x2 DUP3 DUP1 MLOAD PUSH1 0x20 DUP2 ADD DUP3 ADD DUP1 MLOAD DUP5 DUP3 MSTORE PUSH1 0x20 DUP4 ADD PUSH1 0x20 DUP6 ADD KECCAK256 DUP2 DUP4 MSTORE DUP1 SWAP6 POP POP POP POP POP POP DUP2 DUP2 SLOAD DUP2 LT PUSH2 0x4B3 JUMPI PUSH1 0x0 DUP1 REVERT JUMPDEST SWAP1 PUSH1 0x0 MSTORE PUSH1 0x20 PUSH1 0x0 KECCAK256 ADD PUSH1 0x0 SWAP2 POP SWAP2 POP POP SLOAD DUP2 JUMP JUMPDEST PUSH1 0x0 DUP1 PUSH1 0x0 SWAP1 POP PUSH1 0x0 PUSH1 0x1 SWAP1 POP JUMPDEST PUSH1 0x3 SLOAD DUP2 LT ISZERO PUSH2 0x52B JUMPI PUSH1 0x1 PUSH1 0x0 DUP3 DUP2 MSTORE PUSH1 0x20 ADD SWAP1 DUP2 MSTORE PUSH1 0x20 ADD PUSH1 0x0 KECCAK256 PUSH1 0x2 ADD PUSH1 0x0 SWAP1 SLOAD SWAP1 PUSH2 0x100 EXP SWAP1 DIV PUSH1 0xFF AND ISZERO PUSH2 0x518 JUMPI DUP2 DUP1 PUSH2 0x514 SWAP1 PUSH2 0x165B JUMP JUMPDEST SWAP3 POP POP JUMPDEST DUP1 DUP1 PUSH2 0x523 SWAP1 PUSH2 0x165B JUMP JUMPDEST SWAP2 POP POP PUSH2 0x4D6 JUMP JUMPDEST POP DUP1 SWAP2 POP POP SWAP1 JUMP JUMPDEST PUSH1 0x60 PUSH1 0x0 DUP1 PUSH1 0x0 DUP1 PUSH1 0x0 PUSH1 0x1 PUSH1 0x0 DUP9 DUP2 MSTORE PUSH1 0x20 ADD SWAP1 DUP2 MSTORE PUSH1 0x20 ADD PUSH1 0x0 KECCAK256 PUSH1 0x40 MLOAD DUP1 PUSH1 0xC0 ADD PUSH1 0x40 MSTORE SWAP1 DUP2 PUSH1 0x0 DUP3 ADD DUP1 SLOAD PUSH2 0x56B SWAP1 PUSH2 0x15FB JUMP JUMPDEST DUP1 PUSH1 0x1F ADD PUSH1 0x20 DUP1 SWAP2 DIV MUL PUSH1 0x20 ADD PUSH1 0x40 MLOAD SWAP1 DUP2 ADD PUSH1 0x40 MSTORE DUP1 SWAP3 SWAP2 SWAP1 DUP2 DUP2 MSTORE PUSH1 0x20 ADD DUP3 DUP1 SLOAD PUSH2 0x597 SWAP1 PUSH2 0x15FB JUMP JUMPDEST DUP1 ISZERO PUSH2 0x5E4 JUMPI DUP1 PUSH1 0x1F LT PUSH2 0x5B9 JUMPI PUSH2 0x100 DUP1 DUP4 SLOAD DIV MUL DUP4 MSTORE SWAP2 PUSH1 0x20 ADD SWAP2 PUSH2 0x5E4 JUMP JUMPDEST DUP3 ADD SWAP2 SWAP1 PUSH1 0x0 MSTORE PUSH1 0x20 PUSH1 0x0 KECCAK256 SWAP1 JUMPDEST DUP2 SLOAD DUP2 MSTORE SWAP1 PUSH1 0x1 ADD SWAP1 PUSH1 0x20 ADD DUP1 DUP4 GT PUSH2 0x5C7 JUMPI DUP3 SWAP1 SUB PUSH1 0x1F AND DUP3 ADD SWAP2 JUMPDEST POP POP POP POP POP DUP2 MSTORE PUSH1 0x20 ADD PUSH1 0x1 DUP3 ADD SLOAD DUP2 MSTORE PUSH1 0x20 ADD PUSH1 0x2 DUP3 ADD PUSH1 0x0 SWAP1 SLOAD SWAP1 PUSH2 0x100 EXP SWAP1 DIV PUSH1 0xFF AND ISZERO ISZERO ISZERO ISZERO DUP2 MSTORE PUSH1 0x20 ADD PUSH1 0x2 DUP3 ADD PUSH1 0x1 SWAP1 SLOAD SWAP1 PUSH2 0x100 EXP SWAP1 DIV PUSH20 0xFFFFFFFFFFFFFFFFFFFFFFFFFFFFFFFFFFFFFFFF AND PUSH20 0xFFFFFFFFFFFFFFFFFFFFFFFFFFFFFFFFFFFFFFFF AND PUSH20 0xFFFFFFFFFFFFFFFFFFFFFFFFFFFFFFFFFFFFFFFF AND DUP2 MSTORE PUSH1 0x20 ADD PUSH1 0x3 DUP3 ADD SLOAD DUP2 MSTORE PUSH1 0x20 ADD PUSH1 0x4 DUP3 ADD SLOAD DUP2 MSTORE POP POP SWAP1 POP PUSH1 0x0 DUP2 PUSH1 0x80 ADD MLOAD GT PUSH2 0x6C5 JUMPI PUSH1 0x40 MLOAD PUSH32 0x8C379A000000000000000000000000000000000000000000000000000000000 DUP2 MSTORE PUSH1 0x4 ADD PUSH2 0x6BC SWAP1 PUSH2 0x1517 JUMP JUMPDEST PUSH1 0x40 MLOAD DUP1 SWAP2 SUB SWAP1 REVERT JUMPDEST DUP1 PUSH1 0x0 ADD MLOAD DUP2 PUSH1 0x20 ADD MLOAD DUP3 PUSH1 0x40 ADD MLOAD DUP4 PUSH1 0x60 ADD MLOAD DUP5 PUSH1 0x80 ADD MLOAD SWAP6 POP SWAP6 POP SWAP6 POP SWAP6 POP SWAP6 POP POP SWAP2 SWAP4 SWAP6 SWAP1 SWAP3 SWAP5 POP JUMP JUMPDEST PUSH1 0x0 DUP1 DUP4 PUSH1 0x40 MLOAD PUSH2 0x703 SWAP2 SWAP1 PUSH2 0x16DF JUMP JUMPDEST SWAP1 DUP2 MSTORE PUSH1 0x20 ADD PUSH1 0x40 MLOAD DUP1 SWAP2 SUB SWAP1 KECCAK256 PUSH1 0x0 ADD DUP1 SLOAD PUSH2 0x71F SWAP1 PUSH2 0x15FB JUMP JUMPDEST SWAP1 POP GT PUSH2 0x761 JUMPI PUSH1 0x40 MLOAD PUSH32 0x8C379A000000000000000000000000000000000000000000000000000000000 DUP2 MSTORE PUSH1 0x4 ADD PUSH2 0x758 SWAP1 PUSH2 0x1742 JUMP JUMPDEST PUSH1 0x40 MLOAD DUP1 SWAP2 SUB SWAP1 REVERT JUMPDEST DUP1 CALLVALUE EQ PUSH2 0x7A3 JUMPI PUSH1 0x40 MLOAD PUSH32 0x8C379A000000000000000000000000000000000000000000000000000000000 DUP2 MSTORE PUSH1 0x4 ADD PUSH2 0x79A SWAP1 PUSH2 0x17AE JUMP JUMPDEST PUSH1 0x40 MLOAD DUP1 SWAP2 SUB SWAP1 REVERT JUMPDEST PUSH1 0x0 PUSH1 0x3 PUSH1 0x0 DUP2 SLOAD DUP1 SWAP3 SWAP2 SWAP1 PUSH2 0x7B8 SWAP1 PUSH2 0x165B JUMP JUMPDEST SWAP2 SWAP1 POP SSTORE SWAP1 POP PUSH1 0x0 PUSH1 0x40 MLOAD DUP1 PUSH1 0xC0 ADD PUSH1 0x40 MSTORE DUP1 DUP6 DUP2 MSTORE PUSH1 0x20 ADD DUP5 DUP2 MSTORE PUSH1 0x20 ADD PUSH1 0x1 ISZERO ISZERO DUP2 MSTORE PUSH1 0x20 ADD CALLER PUSH20 0xFFFFFFFFFFFFFFFFFFFFFFFFFFFFFFFFFFFFFFFF AND DUP2 MSTORE PUSH1 0x20 ADD TIMESTAMP DUP2 MSTORE PUSH1 0x20 ADD DUP4 DUP2 MSTORE POP SWAP1 POP DUP1 PUSH1 0x1 PUSH1 0x0 DUP5 DUP2 MSTORE PUSH1 0x20 ADD SWAP1 DUP2 MSTORE PUSH1 0x20 ADD PUSH1 0x0 KECCAK256 PUSH1 0x0 DUP3 ADD MLOAD DUP2 PUSH1 0x0 ADD SWAP1 DUP2 PUSH2 0x831 SWAP2 SWAP1 PUSH2 0x197A JUMP JUMPDEST POP PUSH1 0x20 DUP3 ADD MLOAD DUP2 PUSH1 0x1 ADD SSTORE PUSH1 0x40 DUP3 ADD MLOAD DUP2 PUSH1 0x2 ADD PUSH1 0x0 PUSH2 0x100 EXP DUP2 SLOAD DUP2 PUSH1 0xFF MUL NOT AND SWAP1 DUP4 ISZERO ISZERO MUL OR SWAP1 SSTORE POP PUSH1 0x60 DUP3 ADD MLOAD DUP2 PUSH1 0x2 ADD PUSH1 0x1 PUSH2 0x100 EXP DUP2 SLOAD DUP2 PUSH20 0xFFFFFFFFFFFFFFFFFFFFFFFFFFFFFFFFFFFFFFFF MUL NOT AND SWAP1 DUP4 PUSH20 0xFFFFFFFFFFFFFFFFFFFFFFFFFFFFFFFFFFFFFFFF AND MUL OR SWAP1 SSTORE POP PUSH1 0x80 DUP3 ADD MLOAD DUP2 PUSH1 0x3 ADD SSTORE PUSH1 0xA0 DUP3 ADD MLOAD DUP2 PUSH1 0x4 ADD SSTORE SWAP1 POP POP PUSH1 0x2 DUP5 PUSH1 0x40 MLOAD PUSH2 0x8CA SWAP2 SWAP1 PUSH2 0x16DF JUMP JUMPDEST SWAP1 DUP2 MSTORE PUSH1 0x20 ADD PUSH1 0x40 MLOAD DUP1 SWAP2 SUB SWAP1 KECCAK256 DUP3 SWAP1 DUP1 PUSH1 0x1 DUP2 SLOAD ADD DUP1 DUP3 SSTORE DUP1 SWAP2 POP POP PUSH1 0x1 SWAP1 SUB SWAP1 PUSH1 0x0 MSTORE PUSH1 0x20 PUSH1 0x0 KECCAK256 ADD PUSH1 0x0 SWAP1 SWAP2 SWAP1 SWAP2 SWAP1 SWAP2 POP SSTORE DUP2 PUSH32 0x4B4F8D3C427C31F6A1E8A518678F20D88E304DA4D4FA251C3F4AC58EDD0DE7FA DUP6 DUP6 PUSH1 0x40 MLOAD PUSH2 0x931 SWAP3 SWAP2 SWAP1 PUSH2 0x1A4C JUMP JUMPDEST PUSH1 0x40 MLOAD DUP1 SWAP2 SUB SWAP1 LOG2 POP POP POP POP JUMP JUMPDEST PUSH1 0x60 PUSH1 0x2 DUP3 PUSH1 0x40 MLOAD PUSH2 0x951 SWAP2 SWAP1 PUSH2 0x16DF JUMP JUMPDEST SWAP1 DUP2 MSTORE PUSH1 0x20 ADD PUSH1 0x40 MLOAD DUP1 SWAP2 SUB SWAP1 KECCAK256 DUP1 SLOAD DUP1 PUSH1 0x20 MUL PUSH1 0x20 ADD PUSH1 0x40 MLOAD SWAP1 DUP2 ADD PUSH1 0x40 MSTORE DUP1 SWAP3 SWAP2 SWAP1 DUP2 DUP2 MSTORE PUSH1 0x20 ADD DUP3 DUP1 SLOAD DUP1 ISZERO PUSH2 0x9A9 JUMPI PUSH1 0x20 MUL DUP3 ADD SWAP2 SWAP1 PUSH1 0x0 MSTORE PUSH1 0x20 PUSH1 0x0 KECCAK256 SWAP1 JUMPDEST DUP2 SLOAD DUP2 MSTORE PUSH1 0x20 ADD SWAP1 PUSH1 0x1 ADD SWAP1 DUP1 DUP4 GT PUSH2 0x995 JUMPI JUMPDEST POP POP POP POP POP SWAP1 POP SWAP2 SWAP1 POP JUMP JUMPDEST PUSH1 0x0 DUP5 MLOAD GT PUSH2 0x9F9 JUMPI PUSH1 0x40 MLOAD PUSH32 0x8C379A000000000000000000000000000000000000000000000000000000000 DUP2 MSTORE PUSH1 0x4 ADD PUSH2 0x9F0 SWAP1 PUSH2 0x1AC8 JUMP JUMPDEST PUSH1 0x40 MLOAD DUP1 SWAP2 SUB SWAP1 REVERT JUMPDEST PUSH1 0x0 DUP1 DUP6 PUSH1 0x40 MLOAD PUSH2 0xA0A SWAP2 SWAP1 PUSH2 0x16DF JUMP JUMPDEST SWAP1 DUP2 MSTORE PUSH1 0x20 ADD PUSH1 0x40 MLOAD DUP1 SWAP2 SUB SWAP1 KECCAK256 PUSH1 0x0 ADD DUP1 SLOAD PUSH2 0xA26 SWAP1 PUSH2 0x15FB JUMP JUMPDEST SWAP1 POP EQ PUSH2 0xA68 JUMPI PUSH1 0x40 MLOAD PUSH32 0x8C379A000000000000000000000000000000000000000000000000000000000 DUP2 MSTORE PUSH1 0x4 ADD PUSH2 0xA5F SWAP1 PUSH2 0x1B34 JUMP JUMPDEST PUSH1 0x40 MLOAD DUP1 SWAP2 SUB SWAP1 REVERT JUMPDEST PUSH1 0x0 PUSH1 0x40 MLOAD DUP1 PUSH1 0xA0 ADD PUSH1 0x40 MSTORE DUP1 DUP7 DUP2 MSTORE PUSH1 0x20 ADD DUP6 DUP2 MSTORE PUSH1 0x20 ADD DUP5 DUP2 MSTORE PUSH1 0x20 ADD DUP4 DUP2 MSTORE PUSH1 0x20 ADD TIMESTAMP DUP2 MSTORE POP SWAP1 POP DUP1 PUSH1 0x0 DUP7 PUSH1 0x40 MLOAD PUSH2 0xAA4 SWAP2 SWAP1 PUSH2 0x16DF JUMP JUMPDEST SWAP1 DUP2 MSTORE PUSH1 0x20 ADD PUSH1 0x40 MLOAD DUP1 SWAP2 SUB SWAP1 KECCAK256 PUSH1 0x0 DUP3 ADD MLOAD DUP2 PUSH1 0x0 ADD SWAP1 DUP2 PUSH2 0xAC7 SWAP2 SWAP1 PUSH2 0x197A JUMP JUMPDEST POP PUSH1 0x20 DUP3 ADD MLOAD DUP2 PUSH1 0x1 ADD SWAP1 DUP1 MLOAD SWAP1 PUSH1 0x20 ADD SWAP1 PUSH2 0xAE4 SWAP3 SWAP2 SWAP1 PUSH2 0xC11 JUMP JUMPDEST POP PUSH1 0x40 DUP3 ADD MLOAD DUP2 PUSH1 0x2 ADD SWAP1 DUP1 MLOAD SWAP1 PUSH1 0x20 ADD SWAP1 PUSH2 0xB01 SWAP3 SWAP2 SWAP1 PUSH2 0xC5E JUMP JUMPDEST POP PUSH1 0x60 DUP3 ADD MLOAD DUP2 PUSH1 0x3 ADD SSTORE PUSH1 0x80 DUP3 ADD MLOAD DUP2 PUSH1 0x4 ADD SSTORE SWAP1 POP POP POP POP POP POP POP JUMP JUMPDEST PUSH1 0x1 PUSH1 0x20 MSTORE DUP1 PUSH1 0x0 MSTORE PUSH1 0x40 PUSH1 0x0 KECCAK256 PUSH1 0x0 SWAP2 POP SWAP1 POP DUP1 PUSH1 0x0 ADD DUP1 SLOAD PUSH2 0xB43 SWAP1 PUSH2 0x15FB JUMP JUMPDEST DUP1 PUSH1 0x1F ADD PUSH1 0x20 DUP1 SWAP2 DIV MUL PUSH1 0x20 ADD PUSH1 0x40 MLOAD SWAP1 DUP2 ADD PUSH1 0x40 MSTORE DUP1 SWAP3 SWAP2 SWAP1 DUP2 DUP2 MSTORE PUSH1 0x20 ADD DUP3 DUP1 SLOAD PUSH2 0xB6F SWAP1 PUSH2 0x15FB JUMP JUMPDEST DUP1 ISZERO PUSH2 0xBBC JUMPI DUP1 PUSH1 0x1F LT PUSH2 0xB91 JUMPI PUSH2 0x100 DUP1 DUP4 SLOAD DIV MUL DUP4 MSTORE SWAP2 PUSH1 0x20 ADD SWAP2 PUSH2 0xBBC JUMP JUMPDEST DUP3 ADD SWAP2 SWAP1 PUSH1 0x0 MSTORE PUSH1 0x20 PUSH1 0x0 KECCAK256 SWAP1 JUMPDEST DUP2 SLOAD DUP2 MSTORE SWAP1 PUSH1 0x1 ADD SWAP1 PUSH1 0x20 ADD DUP1 DUP4 GT PUSH2 0xB9F JUMPI DUP3 SWAP1 SUB PUSH1 0x1F AND DUP3 ADD SWAP2 JUMPDEST POP POP POP POP POP SWAP1 DUP1 PUSH1 0x1 ADD SLOAD SWAP1 DUP1 PUSH1 0x2 ADD PUSH1 0x0 SWAP1 SLOAD SWAP1 PUSH2 0x100 EXP SWAP1 DIV PUSH1 0xFF AND SWAP1 DUP1 PUSH1 0x2 ADD PUSH1 0x1 SWAP1 SLOAD SWAP1 PUSH2 0x100 EXP SWAP1 DIV PUSH20 0xFFFFFFFFFFFFFFFFFFFFFFFFFFFFFFFFFFFFFFFF AND SWAP1 DUP1 PUSH1 0x3 ADD SLOAD SWAP1 DUP1 PUSH1 0x4 ADD SLOAD SWAP1 POP DUP7 JUMP JUMPDEST DUP3 DUP1 SLOAD DUP3 DUP3 SSTORE SWAP1 PUSH1 0x0 MSTORE PUSH1 0x20 PUSH1 0x0 KECCAK256 SWAP1 DUP2 ADD SWAP3 DUP3 ISZERO PUSH2 0xC4D JUMPI SWAP2 PUSH1 0x20 MUL DUP3 ADD JUMPDEST DUP3 DUP2 GT ISZERO PUSH2 0xC4C JUMPI DUP3 MLOAD DUP3 SSTORE SWAP2 PUSH1 0x20 ADD SWAP2 SWAP1 PUSH1 0x1 ADD SWAP1 PUSH2 0xC31 JUMP JUMPDEST JUMPDEST POP SWAP1 POP PUSH2 0xC5A SWAP2 SWAP1 PUSH2 0xCBE JUMP JUMPDEST POP SWAP1 JUMP JUMPDEST DUP3 DUP1 SLOAD DUP3 DUP3 SSTORE SWAP1 PUSH1 0x0 MSTORE PUSH1 0x20 PUSH1 0x0 KECCAK256 SWAP1 DUP2 ADD SWAP3 DUP3 ISZERO PUSH2 0xCAD JUMPI SWAP2 PUSH1 0x20 MUL DUP3 ADD JUMPDEST DUP3 DUP2 GT ISZERO PUSH2 0xCAC JUMPI DUP3 MLOAD DUP3 SWAP1 DUP1 MLOAD SWAP1 PUSH1 0x20 ADD SWAP1 PUSH2 0xC9C SWAP3 SWAP2 SWAP1 PUSH2 0xC11 JUMP JUMPDEST POP SWAP2 PUSH1 0x20 ADD SWAP2 SWAP1 PUSH1 0x1 ADD SWAP1 PUSH2 0xC7E JUMP JUMPDEST JUMPDEST POP SWAP1 POP PUSH2 0xCBA SWAP2 SWAP1 PUSH2 0xCDB JUMP JUMPDEST POP SWAP1 JUMP JUMPDEST JUMPDEST DUP1 DUP3 GT ISZERO PUSH2 0xCD7 JUMPI PUSH1 0x0 DUP2 PUSH1 0x0 SWAP1 SSTORE POP PUSH1 0x1 ADD PUSH2 0xCBF JUMP JUMPDEST POP SWAP1 JUMP JUMPDEST JUMPDEST DUP1 DUP3 GT ISZERO PUSH2 0xCFB JUMPI PUSH1 0x0 DUP2 DUP2 PUSH2 0xCF2 SWAP2 SWAP1 PUSH2 0xCFF JUMP JUMPDEST POP PUSH1 0x1 ADD PUSH2 0xCDC JUMP JUMPDEST POP SWAP1 JUMP JUMPDEST POP DUP1 SLOAD PUSH1 0x0 DUP3 SSTORE SWAP1 PUSH1 0x0 MSTORE PUSH1 0x20 PUSH1 0x0 KECCAK256 SWAP1 DUP2 ADD SWAP1 PUSH2 0xD1D SWAP2 SWAP1 PUSH2 0xCBE JUMP JUMPDEST POP JUMP JUMPDEST PUSH1 0x0 PUSH1 0x40 MLOAD SWAP1 POP SWAP1 JUMP JUMPDEST PUSH1 0x0 DUP1 REVERT JUMPDEST PUSH1 0x0 DUP1 REVERT JUMPDEST PUSH1 0x0 DUP2 SWAP1 POP SWAP2 SWAP1 POP JUMP JUMPDEST PUSH2 0xD47 DUP2 PUSH2 0xD34 JUMP JUMPDEST DUP2 EQ PUSH2 0xD52 JUMPI PUSH1 0x0 DUP1 REVERT JUMPDEST POP JUMP JUMPDEST PUSH1 0x0 DUP2 CALLDATALOAD SWAP1 POP PUSH2 0xD64 DUP2 PUSH2 0xD3E JUMP JUMPDEST SWAP3 SWAP2 POP POP JUMP JUMPDEST PUSH1 0x0 PUSH1 0x20 DUP3 DUP5 SUB SLT ISZERO PUSH2 0xD80 JUMPI PUSH2 0xD7F PUSH2 0xD2A JUMP JUMPDEST JUMPDEST PUSH1 0x0 PUSH2 0xD8E DUP5 DUP3 DUP6 ADD PUSH2 0xD55 JUMP JUMPDEST SWAP2 POP POP SWAP3 SWAP2 POP POP JUMP JUMPDEST PUSH1 0x0 DUP1 REVERT JUMPDEST PUSH1 0x0 DUP1 REVERT JUMPDEST PUSH1 0x0 PUSH1 0x1F NOT PUSH1 0x1F DUP4 ADD AND SWAP1 POP SWAP2 SWAP1 POP JUMP JUMPDEST PUSH32 0x4E487B7100000000000000000000000000000000000000000000000000000000 PUSH1 0x0 MSTORE PUSH1 0x41 PUSH1 0x4 MSTORE PUSH1 0x24 PUSH1 0x0 REVERT JUMPDEST PUSH2 0xDEA DUP3 PUSH2 0xDA1 JUMP JUMPDEST DUP2 ADD DUP2 DUP2 LT PUSH8 0xFFFFFFFFFFFFFFFF DUP3 GT OR ISZERO PUSH2 0xE09 JUMPI PUSH2 0xE08 PUSH2 0xDB2 JUMP JUMPDEST JUMPDEST DUP1 PUSH1 0x40 MSTORE POP POP POP JUMP JUMPDEST PUSH1 0x0 PUSH2 0xE1C PUSH2 0xD20 JUMP JUMPDEST SWAP1 POP PUSH2 0xE28 DUP3 DUP3 PUSH2 0xDE1 JUMP JUMPDEST SWAP2 SWAP1 POP JUMP JUMPDEST PUSH1 0x0 PUSH8 0xFFFFFFFFFFFFFFFF DUP3 GT ISZERO PUSH2 0xE48 JUMPI PUSH2 0xE47 PUSH2 0xDB2 JUMP JUMPDEST JUMPDEST PUSH2 0xE51 DUP3 PUSH2 0xDA1 JUMP JUMPDEST SWAP1 POP PUSH1 0x20 DUP2 ADD SWAP1 POP SWAP2 SWAP1 POP JUMP JUMPDEST DUP3 DUP2 DUP4 CALLDATACOPY PUSH1 0x0 DUP4 DUP4 ADD MSTORE POP POP POP JUMP JUMPDEST PUSH1 0x0 PUSH2 0xE80 PUSH2 0xE7B DUP5 PUSH2 0xE2D JUMP JUMPDEST PUSH2 0xE12 JUMP JUMPDEST SWAP1 POP DUP3 DUP2 MSTORE PUSH1 0x20 DUP2 ADD DUP5 DUP5 DUP5 ADD GT ISZERO PUSH2 0xE9C JUMPI PUSH2 0xE9B PUSH2 0xD9C JUMP JUMPDEST JUMPDEST PUSH2 0xEA7 DUP5 DUP3 DUP6 PUSH2 0xE5E JUMP JUMPDEST POP SWAP4 SWAP3 POP POP POP JUMP JUMPDEST PUSH1 0x0 DUP3 PUSH1 0x1F DUP4 ADD SLT PUSH2 0xEC4 JUMPI PUSH2 0xEC3 PUSH2 0xD97 JUMP JUMPDEST JUMPDEST DUP2 CALLDATALOAD PUSH2 0xED4 DUP5 DUP3 PUSH1 0x20 DUP7 ADD PUSH2 0xE6D JUMP JUMPDEST SWAP2 POP POP SWAP3 SWAP2 POP POP JUMP JUMPDEST PUSH1 0x0 PUSH1 0x20 DUP3 DUP5 SUB SLT ISZERO PUSH2 0xEF3 JUMPI PUSH2 0xEF2 PUSH2 0xD2A JUMP JUMPDEST JUMPDEST PUSH1 0x0 DUP3 ADD CALLDATALOAD PUSH8 0xFFFFFFFFFFFFFFFF DUP2 GT ISZERO PUSH2 0xF11 JUMPI PUSH2 0xF10 PUSH2 0xD2F JUMP JUMPDEST JUMPDEST PUSH2 0xF1D DUP5 DUP3 DUP6 ADD PUSH2 0xEAF JUMP JUMPDEST SWAP2 POP POP SWAP3 SWAP2 POP POP JUMP JUMPDEST PUSH1 0x0 DUP2 MLOAD SWAP1 POP SWAP2 SWAP1 POP JUMP JUMPDEST PUSH1 0x0 DUP3 DUP3 MSTORE PUSH1 0x20 DUP3 ADD SWAP1 POP SWAP3 SWAP2 POP POP JUMP JUMPDEST PUSH1 0x0 JUMPDEST DUP4 DUP2 LT ISZERO PUSH2 0xF60 JUMPI DUP1 DUP3 ADD MLOAD DUP2 DUP5 ADD MSTORE PUSH1 0x20 DUP2 ADD SWAP1 POP PUSH2 0xF45 JUMP JUMPDEST PUSH1 0x0 DUP5 DUP5 ADD MSTORE POP POP POP POP JUMP JUMPDEST PUSH1 0x0 PUSH2 0xF77 DUP3 PUSH2 0xF26 JUMP JUMPDEST PUSH2 0xF81 DUP2 DUP6 PUSH2 0xF31 JUMP JUMPDEST SWAP4 POP PUSH2 0xF91 DUP2 DUP6 PUSH1 0x20 DUP7 ADD PUSH2 0xF42 JUMP JUMPDEST PUSH2 0xF9A DUP2 PUSH2 0xDA1 JUMP JUMPDEST DUP5 ADD SWAP2 POP POP SWAP3 SWAP2 POP POP JUMP JUMPDEST PUSH2 0xFAE DUP2 PUSH2 0xD34 JUMP JUMPDEST DUP3 MSTORE POP POP JUMP JUMPDEST PUSH1 0x0 PUSH1 0x60 DUP3 ADD SWAP1 POP DUP2 DUP2 SUB PUSH1 0x0 DUP4 ADD MSTORE PUSH2 0xFCE DUP2 DUP7 PUSH2 0xF6C JUMP JUMPDEST SWAP1 POP PUSH2 0xFDD PUSH1 0x20 DUP4 ADD DUP6 PUSH2 0xFA5 JUMP JUMPDEST PUSH2 0xFEA PUSH1 0x40 DUP4 ADD DUP5 PUSH2 0xFA5 JUMP JUMPDEST SWAP5 SWAP4 POP POP POP POP JUMP JUMPDEST PUSH1 0x0 DUP1 PUSH1 0x40 DUP4 DUP6 SUB SLT ISZERO PUSH2 0x1009 JUMPI PUSH2 0x1008 PUSH2 0xD2A JUMP JUMPDEST JUMPDEST PUSH1 0x0 DUP4 ADD CALLDATALOAD PUSH8 0xFFFFFFFFFFFFFFFF DUP2 GT ISZERO PUSH2 0x1027 JUMPI PUSH2 0x1026 PUSH2 0xD2F JUMP JUMPDEST JUMPDEST PUSH2 0x1033 DUP6 DUP3 DUP7 ADD PUSH2 0xEAF JUMP JUMPDEST SWAP3 POP POP PUSH1 0x20 PUSH2 0x1044 DUP6 DUP3 DUP7 ADD PUSH2 0xD55 JUMP JUMPDEST SWAP2 POP POP SWAP3 POP SWAP3 SWAP1 POP JUMP JUMPDEST PUSH1 0x0 PUSH1 0x20 DUP3 ADD SWAP1 POP PUSH2 0x1063 PUSH1 0x0 DUP4 ADD DUP5 PUSH2 0xFA5 JUMP JUMPDEST SWAP3 SWAP2 POP POP JUMP JUMPDEST PUSH1 0x0 DUP2 ISZERO ISZERO SWAP1 POP SWAP2 SWAP1 POP JUMP JUMPDEST PUSH2 0x107E DUP2 PUSH2 0x1069 JUMP JUMPDEST DUP3 MSTORE POP POP JUMP JUMPDEST PUSH1 0x0 PUSH20 0xFFFFFFFFFFFFFFFFFFFFFFFFFFFFFFFFFFFFFFFF DUP3 AND SWAP1 POP SWAP2 SWAP1 POP JUMP JUMPDEST PUSH1 0x0 PUSH2 0x10AF DUP3 PUSH2 0x1084 JUMP JUMPDEST SWAP1 POP SWAP2 SWAP1 POP JUMP JUMPDEST PUSH2 0x10BF DUP2 PUSH2 0x10A4 JUMP JUMPDEST DUP3 MSTORE POP POP JUMP JUMPDEST PUSH1 0x0 PUSH1 0xA0 DUP3 ADD SWAP1 POP DUP2 DUP2 SUB PUSH1 0x0 DUP4 ADD MSTORE PUSH2 0x10DF DUP2 DUP9 PUSH2 0xF6C JUMP JUMPDEST SWAP1 POP PUSH2 0x10EE PUSH1 0x20 DUP4 ADD DUP8 PUSH2 0xFA5 JUMP JUMPDEST PUSH2 0x10FB PUSH1 0x40 DUP4 ADD DUP7 PUSH2 0x1075 JUMP JUMPDEST PUSH2 0x1108 PUSH1 0x60 DUP4 ADD DUP6 PUSH2 0x10B6 JUMP JUMPDEST PUSH2 0x1115 PUSH1 0x80 DUP4 ADD DUP5 PUSH2 0xFA5 JUMP JUMPDEST SWAP7 SWAP6 POP POP POP POP POP POP JUMP JUMPDEST PUSH1 0x0 DUP2 MLOAD SWAP1 POP SWAP2 SWAP1 POP JUMP JUMPDEST PUSH1 0x0 DUP3 DUP3 MSTORE PUSH1 0x20 DUP3 ADD SWAP1 POP SWAP3 SWAP2 POP POP JUMP JUMPDEST PUSH1 0x0 DUP2 SWAP1 POP PUSH1 0x20 DUP3 ADD SWAP1 POP SWAP2 SWAP1 POP JUMP JUMPDEST PUSH2 0x1154 DUP2 PUSH2 0xD34 JUMP JUMPDEST DUP3 MSTORE POP POP JUMP JUMPDEST PUSH1 0x0 PUSH2 0x1166 DUP4 DUP4 PUSH2 0x114B JUMP JUMPDEST PUSH1 0x20 DUP4 ADD SWAP1 POP SWAP3 SWAP2 POP POP JUMP JUMPDEST PUSH1 0x0 PUSH1 0x20 DUP3 ADD SWAP1 POP SWAP2 SWAP1 POP JUMP JUMPDEST PUSH1 0x0 PUSH2 0x118A DUP3 PUSH2 0x111F JUMP JUMPDEST PUSH2 0x1194 DUP2 DUP6 PUSH2 0x112A JUMP JUMPDEST SWAP4 POP PUSH2 0x119F DUP4 PUSH2 0x113B JUMP JUMPDEST DUP1 PUSH1 0x0 JUMPDEST DUP4 DUP2 LT ISZERO PUSH2 0x11D0 JUMPI DUP2 MLOAD PUSH2 0x11B7 DUP9 DUP3 PUSH2 0x115A JUMP JUMPDEST SWAP8 POP PUSH2 0x11C2 DUP4 PUSH2 0x1172 JUMP JUMPDEST SWAP3 POP POP PUSH1 0x1 DUP2 ADD SWAP1 POP PUSH2 0x11A3 JUMP JUMPDEST POP DUP6 SWAP4 POP POP POP POP SWAP3 SWAP2 POP POP JUMP JUMPDEST PUSH1 0x0 PUSH1 0x20 DUP3 ADD SWAP1 POP DUP2 DUP2 SUB PUSH1 0x0 DUP4 ADD MSTORE PUSH2 0x11F7 DUP2 DUP5 PUSH2 0x117F JUMP JUMPDEST SWAP1 POP SWAP3 SWAP2 POP POP JUMP JUMPDEST PUSH1 0x0 PUSH8 0xFFFFFFFFFFFFFFFF DUP3 GT ISZERO PUSH2 0x121A JUMPI PUSH2 0x1219 PUSH2 0xDB2 JUMP JUMPDEST JUMPDEST PUSH1 0x20 DUP3 MUL SWAP1 POP PUSH1 0x20 DUP2 ADD SWAP1 POP SWAP2 SWAP1 POP JUMP JUMPDEST PUSH1 0x0 DUP1 REVERT JUMPDEST PUSH1 0x0 PUSH2 0x1243 PUSH2 0x123E DUP5 PUSH2 0x11FF JUMP JUMPDEST PUSH2 0xE12 JUMP JUMPDEST SWAP1 POP DUP1 DUP4 DUP3 MSTORE PUSH1 0x20 DUP3 ADD SWAP1 POP PUSH1 0x20 DUP5 MUL DUP4 ADD DUP6 DUP2 GT ISZERO PUSH2 0x1266 JUMPI PUSH2 0x1265 PUSH2 0x122B JUMP JUMPDEST JUMPDEST DUP4 JUMPDEST DUP2 DUP2 LT ISZERO PUSH2 0x128F JUMPI DUP1 PUSH2 0x127B DUP9 DUP3 PUSH2 0xD55 JUMP JUMPDEST DUP5 MSTORE PUSH1 0x20 DUP5 ADD SWAP4 POP POP PUSH1 0x20 DUP2 ADD SWAP1 POP PUSH2 0x1268 JUMP JUMPDEST POP POP POP SWAP4 SWAP3 POP POP POP JUMP JUMPDEST PUSH1 0x0 DUP3 PUSH1 0x1F DUP4 ADD SLT PUSH2 0x12AE JUMPI PUSH2 0x12AD PUSH2 0xD97 JUMP JUMPDEST JUMPDEST DUP2 CALLDATALOAD PUSH2 0x12BE DUP5 DUP3 PUSH1 0x20 DUP7 ADD PUSH2 0x1230 JUMP JUMPDEST SWAP2 POP POP SWAP3 SWAP2 POP POP JUMP JUMPDEST PUSH1 0x0 PUSH8 0xFFFFFFFFFFFFFFFF DUP3 GT ISZERO PUSH2 0x12E2 JUMPI PUSH2 0x12E1 PUSH2 0xDB2 JUMP JUMPDEST JUMPDEST PUSH1 0x20 DUP3 MUL SWAP1 POP PUSH1 0x20 DUP2 ADD SWAP1 POP SWAP2 SWAP1 POP JUMP JUMPDEST PUSH1 0x0 PUSH2 0x1306 PUSH2 0x1301 DUP5 PUSH2 0x12C7 JUMP JUMPDEST PUSH2 0xE12 JUMP JUMPDEST SWAP1 POP DUP1 DUP4 DUP3 MSTORE PUSH1 0x20 DUP3 ADD SWAP1 POP PUSH1 0x20 DUP5 MUL DUP4 ADD DUP6 DUP2 GT ISZERO PUSH2 0x1329 JUMPI PUSH2 0x1328 PUSH2 0x122B JUMP JUMPDEST JUMPDEST DUP4 JUMPDEST DUP2 DUP2 LT ISZERO PUSH2 0x1370 JUMPI DUP1 CALLDATALOAD PUSH8 0xFFFFFFFFFFFFFFFF DUP2 GT ISZERO PUSH2 0x134E JUMPI PUSH2 0x134D PUSH2 0xD97 JUMP JUMPDEST JUMPDEST DUP1 DUP7 ADD PUSH2 0x135B DUP10 DUP3 PUSH2 0x1299 JUMP JUMPDEST DUP6 MSTORE PUSH1 0x20 DUP6 ADD SWAP5 POP POP POP PUSH1 0x20 DUP2 ADD SWAP1 POP PUSH2 0x132B JUMP JUMPDEST POP POP POP SWAP4 SWAP3 POP POP POP JUMP JUMPDEST PUSH1 0x0 DUP3 PUSH1 0x1F DUP4 ADD SLT PUSH2 0x138F JUMPI PUSH2 0x138E PUSH2 0xD97 JUMP JUMPDEST JUMPDEST DUP2 CALLDATALOAD PUSH2 0x139F DUP5 DUP3 PUSH1 0x20 DUP7 ADD PUSH2 0x12F3 JUMP JUMPDEST SWAP2 POP POP SWAP3 SWAP2 POP POP JUMP JUMPDEST PUSH1 0x0 DUP1 PUSH1 0x0 DUP1 PUSH1 0x80 DUP6 DUP8 SUB SLT ISZERO PUSH2 0x13C2 JUMPI PUSH2 0x13C1 PUSH2 0xD2A JUMP JUMPDEST JUMPDEST PUSH1 0x0 DUP6 ADD CALLDATALOAD PUSH8 0xFFFFFFFFFFFFFFFF DUP2 GT ISZERO PUSH2 0x13E0 JUMPI PUSH2 0x13DF PUSH2 0xD2F JUMP JUMPDEST JUMPDEST PUSH2 0x13EC DUP8 DUP3 DUP9 ADD PUSH2 0xEAF JUMP JUMPDEST SWAP5 POP POP PUSH1 0x20 DUP6 ADD CALLDATALOAD PUSH8 0xFFFFFFFFFFFFFFFF DUP2 GT ISZERO PUSH2 0x140D JUMPI PUSH2 0x140C PUSH2 0xD2F JUMP JUMPDEST JUMPDEST PUSH2 0x1419 DUP8 DUP3 DUP9 ADD PUSH2 0x1299 JUMP JUMPDEST SWAP4 POP POP PUSH1 0x40 DUP6 ADD CALLDATALOAD PUSH8 0xFFFFFFFFFFFFFFFF DUP2 GT ISZERO PUSH2 0x143A JUMPI PUSH2 0x1439 PUSH2 0xD2F JUMP JUMPDEST JUMPDEST PUSH2 0x1446 DUP8 DUP3 DUP9 ADD PUSH2 0x137A JUMP JUMPDEST SWAP3 POP POP PUSH1 0x60 PUSH2 0x1457 DUP8 DUP3 DUP9 ADD PUSH2 0xD55 JUMP JUMPDEST SWAP2 POP POP SWAP3 SWAP6 SWAP2 SWAP5 POP SWAP3 POP JUMP JUMPDEST PUSH1 0x0 PUSH1 0xC0 DUP3 ADD SWAP1 POP DUP2 DUP2 SUB PUSH1 0x0 DUP4 ADD MSTORE PUSH2 0x147D DUP2 DUP10 PUSH2 0xF6C JUMP JUMPDEST SWAP1 POP PUSH2 0x148C PUSH1 0x20 DUP4 ADD DUP9 PUSH2 0xFA5 JUMP JUMPDEST PUSH2 0x1499 PUSH1 0x40 DUP4 ADD DUP8 PUSH2 0x1075 JUMP JUMPDEST PUSH2 0x14A6 PUSH1 0x60 DUP4 ADD DUP7 PUSH2 0x10B6 JUMP JUMPDEST PUSH2 0x14B3 PUSH1 0x80 DUP4 ADD DUP6 PUSH2 0xFA5 JUMP JUMPDEST PUSH2 0x14C0 PUSH1 0xA0 DUP4 ADD DUP5 PUSH2 0xFA5 JUMP JUMPDEST SWAP8 SWAP7 POP POP POP POP POP POP POP JUMP JUMPDEST PUSH32 0x426F756E747920646F6573206E6F742065786973740000000000000000000000 PUSH1 0x0 DUP3 ADD MSTORE POP JUMP JUMPDEST PUSH1 0x0 PUSH2 0x1501 PUSH1 0x15 DUP4 PUSH2 0xF31 JUMP JUMPDEST SWAP2 POP PUSH2 0x150C DUP3 PUSH2 0x14CB JUMP JUMPDEST PUSH1 0x20 DUP3 ADD SWAP1 POP SWAP2 SWAP1 POP JUMP JUMPDEST PUSH1 0x0 PUSH1 0x20 DUP3 ADD SWAP1 POP DUP2 DUP2 SUB PUSH1 0x0 DUP4 ADD MSTORE PUSH2 0x1530 DUP2 PUSH2 0x14F4 JUMP JUMPDEST SWAP1 POP SWAP2 SWAP1 POP JUMP JUMPDEST PUSH32 0x426F756E7479206973206E6F7420616374697665000000000000000000000000 PUSH1 0x0 DUP3 ADD MSTORE POP JUMP JUMPDEST PUSH1 0x0 PUSH2 0x156D PUSH1 0x14 DUP4 PUSH2 0xF31 JUMP JUMPDEST SWAP2 POP PUSH2 0x1578 DUP3 PUSH2 0x1537 JUMP JUMPDEST PUSH1 0x20 DUP3 ADD SWAP1 POP SWAP2 SWAP1 POP JUMP JUMPDEST PUSH1 0x0 PUSH1 0x20 DUP3 ADD SWAP1 POP DUP2 DUP2 SUB PUSH1 0x0 DUP4 ADD MSTORE PUSH2 0x159C DUP2 PUSH2 0x1560 JUMP JUMPDEST SWAP1 POP SWAP2 SWAP1 POP JUMP JUMPDEST PUSH1 0x0 PUSH1 0x40 DUP3 ADD SWAP1 POP PUSH2 0x15B8 PUSH1 0x0 DUP4 ADD DUP6 PUSH2 0x10B6 JUMP JUMPDEST PUSH2 0x15C5 PUSH1 0x20 DUP4 ADD DUP5 PUSH2 0xFA5 JUMP JUMPDEST SWAP4 SWAP3 POP POP POP JUMP JUMPDEST PUSH32 0x4E487B7100000000000000000000000000000000000000000000000000000000 PUSH1 0x0 MSTORE PUSH1 0x22 PUSH1 0x4 MSTORE PUSH1 0x24 PUSH1 0x0 REVERT JUMPDEST PUSH1 0x0 PUSH1 0x2 DUP3 DIV SWAP1 POP PUSH1 0x1 DUP3 AND DUP1 PUSH2 0x1613 JUMPI PUSH1 0x7F DUP3 AND SWAP2 POP JUMPDEST PUSH1 0x20 DUP3 LT DUP2 SUB PUSH2 0x1626 JUMPI PUSH2 0x1625 PUSH2 0x15CC JUMP JUMPDEST JUMPDEST POP SWAP2 SWAP1 POP JUMP JUMPDEST PUSH32 0x4E487B7100000000000000000000000000000000000000000000000000000000 PUSH1 0x0 MSTORE PUSH1 0x11 PUSH1 0x4 MSTORE PUSH1 0x24 PUSH1 0x0 REVERT JUMPDEST PUSH1 0x0 PUSH2 0x1666 DUP3 PUSH2 0xD34 JUMP JUMPDEST SWAP2 POP PUSH32 0xFFFFFFFFFFFFFFFFFFFFFFFFFFFFFFFFFFFFFFFFFFFFFFFFFFFFFFFFFFFFFFFF DUP3 SUB PUSH2 0x1698 JUMPI PUSH2 0x1697 PUSH2 0x162C JUMP JUMPDEST JUMPDEST PUSH1 0x1 DUP3 ADD SWAP1 POP SWAP2 SWAP1 POP JUMP JUMPDEST PUSH1 0x0 DUP2 SWAP1 POP SWAP3 SWAP2 POP POP JUMP JUMPDEST PUSH1 0x0 PUSH2 0x16B9 DUP3 PUSH2 0xF26 JUMP JUMPDEST PUSH2 0x16C3 DUP2 DUP6 PUSH2 0x16A3 JUMP JUMPDEST SWAP4 POP PUSH2 0x16D3 DUP2 DUP6 PUSH1 0x20 DUP7 ADD PUSH2 0xF42 JUMP JUMPDEST DUP1 DUP5 ADD SWAP2 POP POP SWAP3 SWAP2 POP POP JUMP JUMPDEST PUSH1 0x0 PUSH2 0x16EB DUP3 DUP5 PUSH2 0x16AE JUMP JUMPDEST SWAP2 POP DUP2 SWAP1 POP SWAP3 SWAP2 POP POP JUMP JUMPDEST PUSH32 0x506572736F6E206D757374206578697374000000000000000000000000000000 PUSH1 0x0 DUP3 ADD MSTORE POP JUMP JUMPDEST PUSH1 0x0 PUSH2 0x172C PUSH1 0x11 DUP4 PUSH2 0xF31 JUMP JUMPDEST SWAP2 POP PUSH2 0x1737 DUP3 PUSH2 0x16F6 JUMP JUMPDEST PUSH1 0x20 DUP3 ADD SWAP1 POP SWAP2 SWAP1 POP JUMP JUMPDEST PUSH1 0x0 PUSH1 0x20 DUP3 ADD SWAP1 POP DUP2 DUP2 SUB PUSH1 0x0 DUP4 ADD MSTORE PUSH2 0x175B DUP2 PUSH2 0x171F JUMP JUMPDEST SWAP1 POP SWAP2 SWAP1 POP JUMP JUMPDEST PUSH32 0x4D7573742073656E642065786163742072657761726420616D6F756E74000000 PUSH1 0x0 DUP3 ADD MSTORE POP JUMP JUMPDEST PUSH1 0x0 PUSH2 0x1798 PUSH1 0x1D DUP4 PUSH2 0xF31 JUMP JUMPDEST SWAP2 POP PUSH2 0x17A3 DUP3 PUSH2 0x1762 JUMP JUMPDEST PUSH1 0x20 DUP3 ADD SWAP1 POP SWAP2 SWAP1 POP JUMP JUMPDEST PUSH1 0x0 PUSH1 0x20 DUP3 ADD SWAP1 POP DUP2 DUP2 SUB PUSH1 0x0 DUP4 ADD MSTORE PUSH2 0x17C7 DUP2 PUSH2 0x178B JUMP JUMPDEST SWAP1 POP SWAP2 SWAP1 POP JUMP JUMPDEST PUSH1 0x0 DUP2 SWAP1 POP DUP2 PUSH1 0x0 MSTORE PUSH1 0x20 PUSH1 0x0 KECCAK256 SWAP1 POP SWAP2 SWAP1 POP JUMP JUMPDEST PUSH1 0x0 PUSH1 0x20 PUSH1 0x1F DUP4 ADD DIV SWAP1 POP SWAP2 SWAP1 POP JUMP JUMPDEST PUSH1 0x0 DUP3 DUP3 SHL SWAP1 POP SWAP3 SWAP2 POP POP JUMP JUMPDEST PUSH1 0x0 PUSH1 0x8 DUP4 MUL PUSH2 0x1830 PUSH32 0xFFFFFFFFFFFFFFFFFFFFFFFFFFFFFFFFFFFFFFFFFFFFFFFFFFFFFFFFFFFFFFFF DUP3 PUSH2 0x17F3 JUMP JUMPDEST PUSH2 0x183A DUP7 DUP4 PUSH2 0x17F3 JUMP JUMPDEST SWAP6 POP DUP1 NOT DUP5 AND SWAP4 POP DUP1 DUP7 AND DUP5 OR SWAP3 POP POP POP SWAP4 SWAP3 POP POP POP JUMP JUMPDEST PUSH1 0x0 DUP2 SWAP1 POP SWAP2 SWAP1 POP JUMP JUMPDEST PUSH1 0x0 PUSH2 0x1877 PUSH2 0x1872 PUSH2 0x186D DUP5 PUSH2 0xD34 JUMP JUMPDEST PUSH2 0x1852 JUMP JUMPDEST PUSH2 0xD34 JUMP JUMPDEST SWAP1 POP SWAP2 SWAP1 POP JUMP JUMPDEST PUSH1 0x0 DUP2 SWAP1 POP SWAP2 SWAP1 POP JUMP JUMPDEST PUSH2 0x1891 DUP4 PUSH2 0x185C JUMP JUMPDEST PUSH2 0x18A5 PUSH2 0x189D DUP3 PUSH2 0x187E JUMP JUMPDEST DUP5 DUP5 SLOAD PUSH2 0x1800 JUMP JUMPDEST DUP3 SSTORE POP POP POP POP JUMP JUMPDEST PUSH1 0x0 SWAP1 JUMP JUMPDEST PUSH2 0x18BA PUSH2 0x18AD JUMP JUMPDEST PUSH2 0x18C5 DUP2 DUP5 DUP5 PUSH2 0x1888 JUMP JUMPDEST POP POP POP JUMP JUMPDEST JUMPDEST DUP2 DUP2 LT ISZERO PUSH2 0x18E9 JUMPI PUSH2 0x18DE PUSH1 0x0 DUP3 PUSH2 0x18B2 JUMP JUMPDEST PUSH1 0x1 DUP2 ADD SWAP1 POP PUSH2 0x18CB JUMP JUMPDEST POP POP JUMP JUMPDEST PUSH1 0x1F DUP3 GT ISZERO PUSH2 0x192E JUMPI PUSH2 0x18FF DUP2 PUSH2 0x17CE JUMP JUMPDEST PUSH2 0x1908 DUP5 PUSH2 0x17E3 JUMP JUMPDEST DUP2 ADD PUSH1 0x20 DUP6 LT ISZERO PUSH2 0x1917 JUMPI DUP2 SWAP1 POP JUMPDEST PUSH2 0x192B PUSH2 0x1923 DUP6 PUSH2 0x17E3 JUMP JUMPDEST DUP4 ADD DUP3 PUSH2 0x18CA JUMP JUMPDEST POP POP JUMPDEST POP POP POP JUMP JUMPDEST PUSH1 0x0 DUP3 DUP3 SHR SWAP1 POP SWAP3 SWAP2 POP POP JUMP JUMPDEST PUSH1 0x0 PUSH2 0x1951 PUSH1 0x0 NOT DUP5 PUSH1 0x8 MUL PUSH2 0x1933 JUMP JUMPDEST NOT DUP1 DUP4 AND SWAP2 POP POP SWAP3 SWAP2 POP POP JUMP JUMPDEST PUSH1 0x0 PUSH2 0x196A DUP4 DUP4 PUSH2 0x1940 JUMP JUMPDEST SWAP2 POP DUP3 PUSH1 0x2 MUL DUP3 OR SWAP1 POP SWAP3 SWAP2 POP POP JUMP JUMPDEST PUSH2 0x1983 DUP3 PUSH2 0xF26 JUMP JUMPDEST PUSH8 0xFFFFFFFFFFFFFFFF DUP2 GT ISZERO PUSH2 0x199C JUMPI PUSH2 0x199B PUSH2 0xDB2 JUMP JUMPDEST JUMPDEST PUSH2 0x19A6 DUP3 SLOAD PUSH2 0x15FB JUMP JUMPDEST PUSH2 0x19B1 DUP3 DUP3 DUP6 PUSH2 0x18ED JUMP JUMPDEST PUSH1 0x0 PUSH1 0x20 SWAP1 POP PUSH1 0x1F DUP4 GT PUSH1 0x1 DUP2 EQ PUSH2 0x19E4 JUMPI PUSH1 0x0 DUP5 ISZERO PUSH2 0x19D2 JUMPI DUP3 DUP8 ADD MLOAD SWAP1 POP JUMPDEST PUSH2 0x19DC DUP6 DUP3 PUSH2 0x195E JUMP JUMPDEST DUP7 SSTORE POP PUSH2 0x1A44 JUMP JUMPDEST PUSH1 0x1F NOT DUP5 AND PUSH2 0x19F2 DUP7 PUSH2 0x17CE JUMP JUMPDEST PUSH1 0x0 JUMPDEST DUP3 DUP2 LT ISZERO PUSH2 0x1A1A JUMPI DUP5 DUP10 ADD MLOAD DUP3 SSTORE PUSH1 0x1 DUP3 ADD SWAP2 POP PUSH1 0x20 DUP6 ADD SWAP5 POP PUSH1 0x20 DUP2 ADD SWAP1 POP PUSH2 0x19F5 JUMP JUMPDEST DUP7 DUP4 LT ISZERO PUSH2 0x1A37 JUMPI DUP5 DUP10 ADD MLOAD PUSH2 0x1A33 PUSH1 0x1F DUP10 AND DUP3 PUSH2 0x1940 JUMP JUMPDEST DUP4 SSTORE POP JUMPDEST PUSH1 0x1 PUSH1 0x2 DUP9 MUL ADD DUP9 SSTORE POP POP POP JUMPDEST POP POP POP POP POP POP JUMP JUMPDEST PUSH1 0x0 PUSH1 0x40 DUP3 ADD SWAP1 POP DUP2 DUP2 SUB PUSH1 0x0 DUP4 ADD MSTORE PUSH2 0x1A66 DUP2 DUP6 PUSH2 0xF6C JUMP JUMPDEST SWAP1 POP PUSH2 0x1A75 PUSH1 0x20 DUP4 ADD DUP5 PUSH2 0xFA5 JUMP JUMPDEST SWAP4 SWAP3 POP POP POP JUMP JUMPDEST PUSH32 0x496E76616C696420494400000000000000000000000000000000000000000000 PUSH1 0x0 DUP3 ADD MSTORE POP JUMP JUMPDEST PUSH1 0x0 PUSH2 0x1AB2 PUSH1 0xA DUP4 PUSH2 0xF31 JUMP JUMPDEST SWAP2 POP PUSH2 0x1ABD DUP3 PUSH2 0x1A7C JUMP JUMPDEST PUSH1 0x20 DUP3 ADD SWAP1 POP SWAP2 SWAP1 POP JUMP JUMPDEST PUSH1 0x0 PUSH1 0x20 DUP3 ADD SWAP1 POP DUP2 DUP2 SUB PUSH1 0x0 DUP4 ADD MSTORE PUSH2 0x1AE1 DUP2 PUSH2 0x1AA5 JUMP JUMPDEST SWAP1 POP SWAP2 SWAP1 POP JUMP JUMPDEST PUSH32 0x506572736F6E20616C7265616479206578697374730000000000000000000000 PUSH1 0x0 DUP3 ADD MSTORE POP JUMP JUMPDEST PUSH1 0x0 PUSH2 0x1B1E PUSH1 0x15 DUP4 PUSH2 0xF31 JUMP JUMPDEST SWAP2 POP PUSH2 0x1B29 DUP3 PUSH2 0x1AE8 JUMP JUMPDEST PUSH1 0x20 DUP3 ADD SWAP1 POP SWAP2 SWAP1 POP JUMP JUMPDEST PUSH1 0x0 PUSH1 0x20 DUP3 ADD SWAP1 POP DUP2 DUP2 SUB PUSH1 0x0 DUP4 ADD MSTORE PUSH2 0x1B4D DUP2 PUSH2 0x1B11 JUMP JUMPDEST SWAP1 POP SWAP2 SWAP1 POP JUMP INVALID LOG2 PUSH5 0x6970667358 0x22 SLT KECCAK256 PUSH30 0xCEA65130D7CB20FF2892F5E863478D21F0EDA4E1218DCCB7720FDA9268D0 0xE7 PUSH5 0x736F6C6343 STOP ADDMOD EQ STOP CALLER "},"methodIdentifiers":{"bounties(uint256)":"dc2f8744","createBounty(string,uint256)":"b83a3bc1","createPerson(string,uint256[],uint256[][],uint256)":"ce9d3b4c","getActiveBountiesCount()":"4a655c0d","getBountyById(uint256)":"b2aced4f","getPersonBounties(string)":"bc12fb87","people(string)":"0e139a94","personBounties(string,uint256)":"2cb58f00","redeemBounty(uint256)":"0735ce3c"}}}}}