{
  "_format": "hh-sol-artifact-1",
  "contractName": "FaceRegistration",
  "sourceName": "contracts/FaceRegistry.sol",
  "abi": [
    {
      "inputs": [],
      "stateMutability": "nonpayable",
      "type": "constructor"
    },
    {
      "anonymous": false,
      "inputs": [
        {
          "indexed": true,
          "internalType": "address",
          "name": "wallet",
          "type": "address"
        },
        {
          "indexed": false,
          "internalType": "uint256",
          "name": "amount",
          "type": "uint256"
        }
      ],
      "name": "PaymentSent",
      "type": "event"
    },
    {
      "anonymous": false,
      "inputs": [
        {
          "indexed": true,
          "internalType": "address",
          "name": "wallet",
          "type": "address"
        },
        {
          "indexed": false,
          "internalType": "bytes32",
          "name": "faceHash",
          "type": "bytes32"
        },
        {
          "indexed": false,
          "internalType": "bytes",
          "name": "publicKey",
          "type": "bytes"
        },
        {
          "indexed": false,
          "internalType": "string",
          "name": "ipfsHash",
          "type": "string"
        },
        {
          "indexed": false,
          "internalType": "uint256",
          "name": "timestamp",
          "type": "uint256"
        }
      ],
      "name": "Registered",
      "type": "event"
    },
    {
      "inputs": [],
      "name": "claimPayment",
      "outputs": [],
      "stateMutability": "nonpayable",
      "type": "function"
    },
    {
      "inputs": [],
      "name": "deposit",
      "outputs": [],
      "stateMutability": "payable",
      "type": "function"
    },
    {
      "inputs": [
        {
          "internalType": "address",
          "name": "_wallet",
          "type": "address"
        }
      ],
      "name": "getRegistration",
      "outputs": [
        {
          "components": [
            {
              "internalType": "address",
              "name": "wallet",
              "type": "address"
            },
            {
              "internalType": "bytes",
              "name": "publicKey",
              "type": "bytes"
            },
            {
              "internalType": "bytes32",
              "name": "faceHash",
              "type": "bytes32"
            },
            {
              "internalType": "string",
              "name": "ipfsHash",
              "type": "string"
            },
            {
              "internalType": "uint256",
              "name": "timestamp",
              "type": "uint256"
            }
          ],
          "internalType": "struct FaceRegistration.Registration",
          "name": "",
          "type": "tuple"
        }
      ],
      "stateMutability": "view",
      "type": "function"
    },
    {
      "inputs": [],
      "name": "owner",
      "outputs": [
        {
          "internalType": "address",
          "name": "",
          "type": "address"
        }
      ],
      "stateMutability": "view",
      "type": "function"
    },
    {
      "inputs": [
        {
          "internalType": "address",
          "name": "",
          "type": "address"
        }
      ],
      "name": "paymentSent",
      "outputs": [
        {
          "internalType": "bool",
          "name": "",
          "type": "bool"
        }
      ],
      "stateMutability": "view",
      "type": "function"
    },
    {
      "inputs": [
        {
          "internalType": "bytes32",
          "name": "_faceHash",
          "type": "bytes32"
        },
        {
          "internalType": "bytes",
          "name": "_publicKey",
          "type": "bytes"
        },
        {
          "internalType": "string",
          "name": "_ipfsHash",
          "type": "string"
        }
      ],
      "name": "register",
      "outputs": [],
      "stateMutability": "nonpayable",
      "type": "function"
    },
    {
      "inputs": [
        {
          "internalType": "uint256",
          "name": "",
          "type": "uint256"
        }
      ],
      "name": "registrants",
      "outputs": [
        {
          "internalType": "address",
          "name": "",
          "type": "address"
        }
      ],
      "stateMutability": "view",
      "type": "function"
    },
    {
      "inputs": [
        {
          "internalType": "address",
          "name": "",
          "type": "address"
        }
      ],
      "name": "registrations",
      "outputs": [
        {
          "internalType": "address",
          "name": "wallet",
          "type": "address"
        },
        {
          "internalType": "bytes",
          "name": "publicKey",
          "type": "bytes"
        },
        {
          "internalType": "bytes32",
          "name": "faceHash",
          "type": "bytes32"
        },
        {
          "internalType": "string",
          "name": "ipfsHash",
          "type": "string"
        },
        {
          "internalType": "uint256",
          "name": "timestamp",
          "type": "uint256"
        }
      ],
      "stateMutability": "view",
      "type": "function"
    },
    {
      "inputs": [],
      "name": "totalRegistrants",
      "outputs": [
        {
          "internalType": "uint256",
          "name": "",
          "type": "uint256"
        }
      ],
      "stateMutability": "view",
      "type": "function"
    },
    {
      "stateMutability": "payable",
      "type": "receive"
    }
  ],
  "bytecode": "0x608060405234801561001057600080fd5b50600080546001600160a01b03191633179055610c95806100326000396000f3fe60806040526004361061008a5760003560e01c80638da5cb5b116100595780638da5cb5b1461015e5780638e4a5d801461017e578063942e6bcf146101a0578063c7dea2f2146101d1578063d0e30db01461019e57600080fd5b8063391b5fb6146100965780636ac4d582146100b957806372731062146100f1578063765e33fd1461011e57600080fd5b3661009157005b600080fd5b3480156100a257600080fd5b506002546040519081526020015b60405180910390f35b3480156100c557600080fd5b506100d96100d4366004610889565b6101e6565b6040516001600160a01b0390911681526020016100b0565b3480156100fd57600080fd5b5061011161010c3660046108a2565b610210565b6040516100b09190610918565b34801561012a57600080fd5b5061014e6101393660046108a2565b60036020526000908152604090205460ff1681565b60405190151581526020016100b0565b34801561016a57600080fd5b506000546100d9906001600160a01b031681565b34801561018a57600080fd5b5061019e6101993660046109cd565b6103bf565b005b3480156101ac57600080fd5b506101c06101bb3660046108a2565b6105b5565b6040516100b0959493929190610a47565b3480156101dd57600080fd5b5061019e6106ff565b600281815481106101f657600080fd5b6000918252602090912001546001600160a01b0316905081565b61024e6040518060a0016040528060006001600160a01b03168152602001606081526020016000801916815260200160608152602001600081525090565b6001600160a01b03808316600090815260016020818152604092839020835160a081019094528054909416835290830180549293929184019161029090610a96565b80601f01602080910402602001604051908101604052809291908181526020018280546102bc90610a96565b80156103095780601f106102de57610100808354040283529160200191610309565b820191906000526020600020905b8154815290600101906020018083116102ec57829003601f168201915b505050505081526020016002820154815260200160038201805461032c90610a96565b80601f016020809104026020016040519081016040528092919081815260200182805461035890610a96565b80156103a55780601f1061037a576101008083540402835291602001916103a5565b820191906000526020600020905b81548152906001019060200180831161038857829003601f168201915b505050505081526020016004820154815250509050919050565b336000908152600160205260409020546001600160a01b03161561041f5760405162461bcd60e51b8152602060048201526012602482015271105b1c9958591e481c9959da5cdd195c995960721b60448201526064015b60405180910390fd5b60006040518060a00160405280336001600160a01b0316815260200186868080601f016020809104026020016040519081016040528093929190818152602001838380828437600092019190915250505090825250602080820189905260408051601f8701839004830281018301825286815292019190869086908190840183828082843760009201829052509385525050426020938401525033815260018083526040909120835181546001600160a01b0319166001600160a01b03909116178155918301519293508392908201906104f99082610b35565b5060408201516002820155606082015160038201906105189082610b35565b5060809190910151600490910155600280546001810182556000919091527f405787fa12a823e0f2b7631cc41b3ba8828b3321ca811111fa75cd3aa3bb5ace0180546001600160a01b031916339081179091556040517f92e9f2954302897c701ace7a6e3d52d379a699fac7d066deb3f207101edc1d0c906105a590899089908990899089904290610c1e565b60405180910390a2505050505050565b6001602081905260009182526040909120805491810180546001600160a01b03909316926105e290610a96565b80601f016020809104026020016040519081016040528092919081815260200182805461060e90610a96565b801561065b5780601f106106305761010080835404028352916020019161065b565b820191906000526020600020905b81548152906001019060200180831161063e57829003601f168201915b50505050509080600201549080600301805461067690610a96565b80601f01602080910402602001604051908101604052809291908181526020018280546106a290610a96565b80156106ef5780601f106106c4576101008083540402835291602001916106ef565b820191906000526020600020905b8154815290600101906020018083116106d257829003601f168201915b5050505050908060040154905085565b336000908152600160205260409020546001600160a01b03166107555760405162461bcd60e51b815260206004820152600e60248201526d139bdd081c9959da5cdd195c995960921b6044820152606401610416565b3360009081526003602052604090205460ff16156107b55760405162461bcd60e51b815260206004820152601760248201527f5061796d656e7420616c726561647920636c61696d65640000000000000000006044820152606401610416565b662386f26fc100004781111561080d5760405162461bcd60e51b815260206004820152601d60248201527f496e73756666696369656e7420636f6e74726163742062616c616e63650000006044820152606401610416565b33600081815260036020526040808220805460ff191660011790555183156108fc0291849190818181858888f19350505050158015610850573d6000803e3d6000fd5b5060405181815233907f47db2abce6d5fbcd80ffd9b4ba74dcde804a746ef732bc7f8a70fabfc912c5909060200160405180910390a250565b60006020828403121561089b57600080fd5b5035919050565b6000602082840312156108b457600080fd5b81356001600160a01b03811681146108cb57600080fd5b9392505050565b6000815180845260005b818110156108f8576020818501810151868301820152016108dc565b506000602082860101526020601f19601f83011685010191505092915050565b602080825282516001600160a01b03168282015282015160a0604083015260009061094660c08401826108d2565b9050604084015160608401526060840151601f1984830301608085015261096d82826108d2565b915050608084015160a08401528091505092915050565b60008083601f84011261099657600080fd5b50813567ffffffffffffffff8111156109ae57600080fd5b6020830191508360208285010111156109c657600080fd5b9250929050565b6000806000806000606086880312156109e557600080fd5b85359450602086013567ffffffffffffffff80821115610a0457600080fd5b610a1089838a01610984565b90965094506040880135915080821115610a2957600080fd5b50610a3688828901610984565b969995985093965092949392505050565b6001600160a01b038616815260a060208201819052600090610a6b908301876108d2565b8560408401528281036060840152610a8381866108d2565b9150508260808301529695505050505050565b600181811c90821680610aaa57607f821691505b602082108103610aca57634e487b7160e01b600052602260045260246000fd5b50919050565b634e487b7160e01b600052604160045260246000fd5b601f821115610b3057600081815260208120601f850160051c81016020861015610b0d5750805b601f850160051c820191505b81811015610b2c57828155600101610b19565b5050505b505050565b815167ffffffffffffffff811115610b4f57610b4f610ad0565b610b6381610b5d8454610a96565b84610ae6565b602080601f831160018114610b985760008415610b805750858301515b600019600386901b1c1916600185901b178555610b2c565b600085815260208120601f198616915b82811015610bc757888601518255948401946001909101908401610ba8565b5085821015610be55787850151600019600388901b60f8161c191681555b5050505050600190811b01905550565b81835281816020850137506000828201602090810191909152601f909101601f19169091010190565b868152608060208201526000610c38608083018789610bf5565b8281036040840152610c4b818688610bf5565b91505082606083015297965050505050505056fea264697066735822122000ce523221db5aa4914ea938dda33ceec68a27500a4508ddd0576ed5f7cc727364736f6c63430008140033",
  "linkReferences": {},
  "deployedLinkReferences": {}
}