{
  "_format": "hh-sol-artifact-1",
  "contractName": "FaceRegistration",
  "sourceName": "contracts/FaceRegistry.sol",
  "abi": [
    {
      "inputs": [],
      "stateMutability": "nonpayable",
      "type": "constructor"
    },
    {
      "anonymous": false,
      "inputs": [
        {
          "indexed": true,
          "internalType": "address",
          "name": "wallet",
          "type": "address"
        },
        {
          "indexed": false,
          "internalType": "uint256",
          "name": "amount",
          "type": "uint256"
        }
      ],
      "name": "PaymentSent",
      "type": "event"
    },
    {
      "anonymous": false,
      "inputs": [
        {
          "indexed": true,
          "internalType": "address",
          "name": "wallet",
          "type": "address"
        },
        {
          "indexed": false,
          "internalType": "bytes32",
          "name": "faceHash",
          "type": "bytes32"
        },
        {
          "indexed": false,
          "internalType": "bytes",
          "name": "publicKey",
          "type": "bytes"
        },
        {
          "indexed": false,
          "internalType": "string",
          "name": "ipfsHash",
          "type": "string"
        },
        {
          "indexed": false,
          "internalType": "uint256",
          "name": "timestamp",
          "type": "uint256"
        }
      ],
      "name": "Registered",
      "type": "event"
    },
    {
      "inputs": [],
      "name": "claimPayment",
      "outputs": [],
      "stateMutability": "nonpayable",
      "type": "function"
    },
    {
      "inputs": [],
      "name": "deposit",
      "outputs": [],
      "stateMutability": "payable",
      "type": "function"
    },
    {
      "inputs": [
        {
          "internalType": "address",
          "name": "_wallet",
          "type": "address"
        }
      ],
      "name": "getRegistration",
      "outputs": [
        {
          "components": [
            {
              "internalType": "address",
              "name": "wallet",
              "type": "address"
            },
            {
              "internalType": "bytes",
              "name": "publicKey",
              "type": "bytes"
            },
            {
              "internalType": "bytes32",
              "name": "faceHash",
              "type": "bytes32"
            },
            {
              "internalType": "string",
              "name": "ipfsHash",
              "type": "string"
            },
            {
              "internalType": "uint256",
              "name": "timestamp",
              "type": "uint256"
            }
          ],
          "internalType": "struct FaceRegistration.Registration",
          "name": "",
          "type": "tuple"
        }
      ],
      "stateMutability": "view",
      "type": "function"
    },
    {
      "inputs": [],
      "name": "owner",
      "outputs": [
        {
          "internalType": "address",
          "name": "",
          "type": "address"
        }
      ],
      "stateMutability": "view",
      "type": "function"
    },
    {
      "inputs": [
        {
          "internalType": "address",
          "name": "",
          "type": "address"
        }
      ],
      "name": "paymentSent",
      "outputs": [
        {
          "internalType": "bool",
          "name": "",
          "type": "bool"
        }
      ],
      "stateMutability": "view",
      "type": "function"
    },
    {
      "inputs": [
        {
          "internalType": "bytes32",
          "name": "_faceHash",
          "type": "bytes32"
        },
        {
          "internalType": "bytes",
          "name": "_publicKey",
          "type": "bytes"
        },
        {
          "internalType": "string",
          "name": "_ipfsHash",
          "type": "string"
        }
      ],
      "name": "register",
      "outputs": [],
      "stateMutability": "nonpayable",
      "type": "function"
    },
    {
      "inputs": [
        {
          "internalType": "uint256",
          "name": "",
          "type": "uint256"
        }
      ],
      "name": "registrants",
      "outputs": [
        {
          "internalType": "address",
          "name": "",
          "type": "address"
        }
      ],
      "stateMutability": "view",
      "type": "function"
    },
    {
      "inputs": [
        {
          "internalType": "address",
          "name": "",
          "type": "address"
        }
      ],
      "name": "registrations",
      "outputs": [
        {
          "internalType": "address",
          "name": "wallet",
          "type": "address"
        },
        {
          "internalType": "bytes",
          "name": "publicKey",
          "type": "bytes"
        },
        {
          "internalType": "bytes32",
          "name": "faceHash",
          "type": "bytes32"
        },
        {
          "internalType": "string",
          "name": "ipfsHash",
          "type": "string"
        },
        {
          "internalType": "uint256",
          "name": "timestamp",
          "type": "uint256"
        }
      ],
      "stateMutability": "view",
      "type": "function"
    },
    {
      "inputs": [],
      "name": "totalRegistrants",
      "outputs": [
        {
          "internalType": "uint256",
          "name": "",
          "type": "uint256"
        }
      ],
      "stateMutability": "view",
      "type": "function"
    },
    {
      "stateMutability": "payable",
      "type": "receive"
    }
  ],
  "bytecode": "0x608060405234801561001057600080fd5b50336000806101000a81548173ffffffffffffffffffffffffffffffffffffffff021916908373ffffffffffffffffffffffffffffffffffffffff1602179055506118b6806100606000396000f3fe60806040526004361061008a5760003560e01c80638da5cb5b116100595780638da5cb5b146101785780638e4a5d80146101a3578063942e6bcf146101cc578063c7dea2f21461020d578063d0e30db01461022457610091565b8063391b5fb6146100965780636ac4d582146100c157806372731062146100fe578063765e33fd1461013b57610091565b3661009157005b600080fd5b3480156100a257600080fd5b506100ab61022e565b6040516100b89190610c32565b60405180910390f35b3480156100cd57600080fd5b506100e860048036038101906100e39190610c83565b61023b565b6040516100f59190610cf1565b60405180910390f35b34801561010a57600080fd5b5061012560048036038101906101209190610d38565b61027a565b6040516101329190610efe565b60405180910390f35b34801561014757600080fd5b50610162600480360381019061015d9190610d38565b610461565b60405161016f9190610f3b565b60405180910390f35b34801561018457600080fd5b5061018d610481565b60405161019a9190610cf1565b60405180910390f35b3480156101af57600080fd5b506101ca60048036038101906101c5919061103d565b6104a5565b005b3480156101d857600080fd5b506101f360048036038101906101ee9190610d38565b6107cc565b604051610204959493929190611175565b60405180910390f35b34801561021957600080fd5b50610222610932565b005b61022c610bcf565b005b6000600280549050905090565b6002818154811061024b57600080fd5b906000526020600020016000915054906101000a900473ffffffffffffffffffffffffffffffffffffffff1681565b610282610bd1565b600160008373ffffffffffffffffffffffffffffffffffffffff1673ffffffffffffffffffffffffffffffffffffffff1681526020019081526020016000206040518060a00160405290816000820160009054906101000a900473ffffffffffffffffffffffffffffffffffffffff1673ffffffffffffffffffffffffffffffffffffffff1673ffffffffffffffffffffffffffffffffffffffff16815260200160018201805461033290611205565b80601f016020809104026020016040519081016040528092919081815260200182805461035e90611205565b80156103ab5780601f10610380576101008083540402835291602001916103ab565b820191906000526020600020905b81548152906001019060200180831161038e57829003601f168201915b50505050508152602001600282015481526020016003820180546103ce90611205565b80601f01602080910402602001604051908101604052809291908181526020018280546103fa90611205565b80156104475780601f1061041c57610100808354040283529160200191610447565b820191906000526020600020905b81548152906001019060200180831161042a57829003601f168201915b505050505081526020016004820154815250509050919050565b60036020528060005260406000206000915054906101000a900460ff1681565b60008054906101000a900473ffffffffffffffffffffffffffffffffffffffff1681565b600073ffffffffffffffffffffffffffffffffffffffff16600160003373ffffffffffffffffffffffffffffffffffffffff1673ffffffffffffffffffffffffffffffffffffffff16815260200190815260200160002060000160009054906101000a900473ffffffffffffffffffffffffffffffffffffffff1673ffffffffffffffffffffffffffffffffffffffff1614610576576040517f08c379a000000000000000000000000000000000000000000000000000000000815260040161056d90611282565b60405180910390fd5b60006040518060a001604052803373ffffffffffffffffffffffffffffffffffffffff16815260200186868080601f016020809104026020016040519081016040528093929190818152602001838380828437600081840152601f19601f82011690508083019250505050505050815260200187815260200184848080601f016020809104026020016040519081016040528093929190818152602001838380828437600081840152601f19601f82011690508083019250505050505050815260200142815250905080600160003373ffffffffffffffffffffffffffffffffffffffff1673ffffffffffffffffffffffffffffffffffffffff16815260200190815260200160002060008201518160000160006101000a81548173ffffffffffffffffffffffffffffffffffffffff021916908373ffffffffffffffffffffffffffffffffffffffff16021790555060208201518160010190816106db919061147d565b506040820151816002015560608201518160030190816106fb91906115aa565b50608082015181600401559050506002339080600181540180825580915050600190039060005260206000200160009091909190916101000a81548173ffffffffffffffffffffffffffffffffffffffff021916908373ffffffffffffffffffffffffffffffffffffffff1602179055503373ffffffffffffffffffffffffffffffffffffffff167f92e9f2954302897c701ace7a6e3d52d379a699fac7d066deb3f207101edc1d0c8787878787426040516107bc969594939291906116e5565b60405180910390a2505050505050565b60016020528060005260406000206000915090508060000160009054906101000a900473ffffffffffffffffffffffffffffffffffffffff169080600101805461081590611205565b80601f016020809104026020016040519081016040528092919081815260200182805461084190611205565b801561088e5780601f106108635761010080835404028352916020019161088e565b820191906000526020600020905b81548152906001019060200180831161087157829003601f168201915b5050505050908060020154908060030180546108a990611205565b80601f01602080910402602001604051908101604052809291908181526020018280546108d590611205565b80156109225780601f106108f757610100808354040283529160200191610922565b820191906000526020600020905b81548152906001019060200180831161090557829003601f168201915b5050505050908060040154905085565b600073ffffffffffffffffffffffffffffffffffffffff16600160003373ffffffffffffffffffffffffffffffffffffffff1673ffffffffffffffffffffffffffffffffffffffff16815260200190815260200160002060000160009054906101000a900473ffffffffffffffffffffffffffffffffffffffff1673ffffffffffffffffffffffffffffffffffffffff1603610a03576040517f08c379a00000000000000000000000000000000000000000000000000000000081526004016109fa90611788565b60405180910390fd5b600360003373ffffffffffffffffffffffffffffffffffffffff1673ffffffffffffffffffffffffffffffffffffffff16815260200190815260200160002060009054906101000a900460ff1615610a90576040517f08c379a0000000000000000000000000000000000000000000000000000000008152600401610a87906117f4565b60405180910390fd5b6000662386f26fc10000905080471015610adf576040517f08c379a0000000000000000000000000000000000000000000000000000000008152600401610ad690611860565b60405180910390fd5b6001600360003373ffffffffffffffffffffffffffffffffffffffff1673ffffffffffffffffffffffffffffffffffffffff16815260200190815260200160002060006101000a81548160ff0219169083151502179055503373ffffffffffffffffffffffffffffffffffffffff166108fc829081150290604051600060405180830381858888f19350505050158015610b7d573d6000803e3d6000fd5b503373ffffffffffffffffffffffffffffffffffffffff167f47db2abce6d5fbcd80ffd9b4ba74dcde804a746ef732bc7f8a70fabfc912c59082604051610bc49190610c32565b60405180910390a250565b565b6040518060a00160405280600073ffffffffffffffffffffffffffffffffffffffff168152602001606081526020016000801916815260200160608152602001600081525090565b6000819050919050565b610c2c81610c19565b82525050565b6000602082019050610c476000830184610c23565b92915050565b600080fd5b600080fd5b610c6081610c19565b8114610c6b57600080fd5b50565b600081359050610c7d81610c57565b92915050565b600060208284031215610c9957610c98610c4d565b5b6000610ca784828501610c6e565b91505092915050565b600073ffffffffffffffffffffffffffffffffffffffff82169050919050565b6000610cdb82610cb0565b9050919050565b610ceb81610cd0565b82525050565b6000602082019050610d066000830184610ce2565b92915050565b610d1581610cd0565b8114610d2057600080fd5b50565b600081359050610d3281610d0c565b92915050565b600060208284031215610d4e57610d4d610c4d565b5b6000610d5c84828501610d23565b91505092915050565b610d6e81610cd0565b82525050565b600081519050919050565b600082825260208201905092915050565b60005b83811015610dae578082015181840152602081019050610d93565b60008484015250505050565b6000601f19601f8301169050919050565b6000610dd682610d74565b610de08185610d7f565b9350610df0818560208601610d90565b610df981610dba565b840191505092915050565b6000819050919050565b610e1781610e04565b82525050565b600081519050919050565b600082825260208201905092915050565b6000610e4482610e1d565b610e4e8185610e28565b9350610e5e818560208601610d90565b610e6781610dba565b840191505092915050565b610e7b81610c19565b82525050565b600060a083016000830151610e996000860182610d65565b5060208301518482036020860152610eb18282610dcb565b9150506040830151610ec66040860182610e0e565b5060608301518482036060860152610ede8282610e39565b9150506080830151610ef36080860182610e72565b508091505092915050565b60006020820190508181036000830152610f188184610e81565b905092915050565b60008115159050919050565b610f3581610f20565b82525050565b6000602082019050610f506000830184610f2c565b92915050565b610f5f81610e04565b8114610f6a57600080fd5b50565b600081359050610f7c81610f56565b92915050565b600080fd5b600080fd5b600080fd5b60008083601f840112610fa757610fa6610f82565b5b8235905067ffffffffffffffff811115610fc457610fc3610f87565b5b602083019150836001820283011115610fe057610fdf610f8c565b5b9250929050565b60008083601f840112610ffd57610ffc610f82565b5b8235905067ffffffffffffffff81111561101a57611019610f87565b5b60208301915083600182028301111561103657611035610f8c565b5b9250929050565b60008060008060006060868803121561105957611058610c4d565b5b600061106788828901610f6d565b955050602086013567ffffffffffffffff81111561108857611087610c52565b5b61109488828901610f91565b9450945050604086013567ffffffffffffffff8111156110b7576110b6610c52565b5b6110c388828901610fe7565b92509250509295509295909350565b600082825260208201905092915050565b60006110ee82610d74565b6110f881856110d2565b9350611108818560208601610d90565b61111181610dba565b840191505092915050565b61112581610e04565b82525050565b600082825260208201905092915050565b600061114782610e1d565b611151818561112b565b9350611161818560208601610d90565b61116a81610dba565b840191505092915050565b600060a08201905061118a6000830188610ce2565b818103602083015261119c81876110e3565b90506111ab604083018661111c565b81810360608301526111bd818561113c565b90506111cc6080830184610c23565b9695505050505050565b7f4e487b7100000000000000000000000000000000000000000000000000000000600052602260045260246000fd5b6000600282049050600182168061121d57607f821691505b6020821081036112305761122f6111d6565b5b50919050565b7f416c726561647920726567697374657265640000000000000000000000000000600082015250565b600061126c60128361112b565b915061127782611236565b602082019050919050565b6000602082019050818103600083015261129b8161125f565b9050919050565b7f4e487b7100000000000000000000000000000000000000000000000000000000600052604160045260246000fd5b60008190508160005260206000209050919050565b60006020601f8301049050919050565b600082821b905092915050565b6000600883026113337fffffffffffffffffffffffffffffffffffffffffffffffffffffffffffffffff826112f6565b61133d86836112f6565b95508019841693508086168417925050509392505050565b6000819050919050565b600061137a61137561137084610c19565b611355565b610c19565b9050919050565b6000819050919050565b6113948361135f565b6113a86113a082611381565b848454611303565b825550505050565b600090565b6113bd6113b0565b6113c881848461138b565b505050565b5b818110156113ec576113e16000826113b5565b6001810190506113ce565b5050565b601f82111561143157611402816112d1565b61140b846112e6565b8101602085101561141a578190505b61142e611426856112e6565b8301826113cd565b50505b505050565b600082821c905092915050565b600061145460001984600802611436565b1980831691505092915050565b600061146d8383611443565b9150826002028217905092915050565b61148682610d74565b67ffffffffffffffff81111561149f5761149e6112a2565b5b6114a98254611205565b6114b48282856113f0565b600060209050601f8311600181146114e757600084156114d5578287015190505b6114df8582611461565b865550611547565b601f1984166114f5866112d1565b60005b8281101561151d578489015182556001820191506020850194506020810190506114f8565b8683101561153a5784890151611536601f891682611443565b8355505b6001600288020188555050505b505050505050565b60008190508160005260206000209050919050565b601f8211156115a5576115768161154f565b61157f846112e6565b8101602085101561158e578190505b6115a261159a856112e6565b8301826113cd565b50505b505050565b6115b382610e1d565b67ffffffffffffffff8111156115cc576115cb6112a2565b5b6115d68254611205565b6115e1828285611564565b600060209050601f8311600181146116145760008415611602578287015190505b61160c8582611461565b865550611674565b601f1984166116228661154f565b60005b8281101561164a57848901518255600182019150602085019450602081019050611625565b868310156116675784890151611663601f891682611443565b8355505b6001600288020188555050505b505050505050565b82818337600083830152505050565b600061169783856110d2565b93506116a483858461167c565b6116ad83610dba565b840190509392505050565b60006116c4838561112b565b93506116d183858461167c565b6116da83610dba565b840190509392505050565b60006080820190506116fa600083018961111c565b818103602083015261170d81878961168b565b905081810360408301526117228185876116b8565b90506117316060830184610c23565b979650505050505050565b7f4e6f742072656769737465726564000000000000000000000000000000000000600082015250565b6000611772600e8361112b565b915061177d8261173c565b602082019050919050565b600060208201905081810360008301526117a181611765565b9050919050565b7f5061796d656e7420616c726561647920636c61696d6564000000000000000000600082015250565b60006117de60178361112b565b91506117e9826117a8565b602082019050919050565b6000602082019050818103600083015261180d816117d1565b9050919050565b7f496e73756666696369656e7420636f6e74726163742062616c616e6365000000600082015250565b600061184a601d8361112b565b915061185582611814565b602082019050919050565b600060208201905081810360008301526118798161183d565b905091905056fea26469706673582212205bb597b922c09c1cec62ba2502280f2037665789a802112eca3023c3761c729f64736f6c63430008140033",
  "linkReferences": {},
  "deployedLinkReferences": {}
}